:02000002D0002C
:1040000000400D00A45A0D00000006000C00050140
:084010000401DB0700000000C1
:0440180088570D00B8
:10401C0009480A49884208B505D0094A824202D0AB
:10402C00121A01F069FB0748074A0021121A01F025
:10403C0071FB014808BD00BF50E50320145A0D0068
:10404C00B8E50320B8E50320F0E7032070B5074E70
:10405C00074C01F065FAA41BA4080025A54200D169
:10406C0070BD56F8043B98470135F7E7E0590D0051
:10407C00045A0D0000F064B808B500F0DDF8BDE896
:10408C00084001F00FBA00F0F7BA00F0FDBA007862
:10409C00B0FA80F0400970470123037070477047F5
:1040AC0010B5064B036064330446036100F06AFEEE
:1040BC00204601F02DF8204610BD00BFE0580D0041
:1040CC0010B51821044601F004FB204610BD10B5B4
:1040DC000446FFF7E5FF20464C2101F0FAFA204692
:1040EC0010BD000030B5144C0023606887B01A4630
:1040FC00194600F071FA00226068114600F084FA4B
:10410C000028F8D0052000F0CFFA01F041F90B4956
:10411C0000F000FD01F03CF90022114605466068F4
:10412C0000F052FA811C684600F0D0FB6946284624
:10413C0000F013FD07B030BDB8E703209C570D000D
:10414C0010B501F025F9144C4FF4165101F014F987
:10415C0001F01EF900F0EBFC01F01AF9214600F019
:10416C00F2FC01F015F90D4900F0EDFC01F010F92D
:10417C00214600F0E8FC0221084601F041FAFFF765
:10418C00B1FF052000F090FA01F002F9BDE81040F3
:10419C00034900F0D8BC00BFAE570D00D2570D003C
:1041AC00E5570D0008B580B201F03BFA003818BF96
:1041BC00012008BD2DE9F0410720FFF7F3FF06466B
:1041CC0090BB01F059FA02225A2100F03CFB01F09D
:1041DC0053FA0368154F5B69DFF85880984705461A
:1041EC0001F04AFA03685B699847EDB245EA00258D
:1041FC00ACB235460E4E44FA05F303F001033B70A6
:10420C0001F0C6F8414600F09EFC01F0C1F817F829
:10421C00011B0A2200F0ABFC013501F0B9F8314664
:10422C0000F091FC0C2DE6D1BDE8F08138E60320BE
:10423C00AD570D00FA570D00FFF7BCBF73B5124D0B
:10424C00124C134E284600F043FF2846114D1249DC
:10425C00224601F039FA284600F02AFB2246314664
:10426C0028460E4D01F030FA09230093A8220123B1
:10427C00C021284600F060FB22463146284602B099
:10428C00BDE8704001F020BABCE50320B8E503207E
:10429C00AB400D0008E60320AD400D0020E60320E6
:1042AC0008B5024B1B685B6C019308BD4802030008
:1042BC0008B5024B1B689B6C019308BD48020300B8
:1042CC0008B5024B1B685B68019308BD180203001C
:1042DC0008B5024B1B685B69019308BD180203000B
:1042EC0008B5024B1B689B68019308BD2C020300A8
:1042FC0008B5024B1B68DB68019308BD2C02030058
:10430C0008B5024B1B685B69019308BD2C020300C6
:10431C0008B5024B1B681B6A019308BD28020300F9
:10432C0008B5024B1B685B6A019308BD28020300A9
:10433C0008B5024B1B689B6A019308BD2802030059
:10434C0008B5024B1B68DB6A019308BD2802030009
:10435C0008B5024B1B681B6B019308BD28020300B8
:10436C0008B5024B1B685B6B019308BD2802030068
:10437C0008B5024B1B681B6C019308BD2802030097
:10438C0008B5024B1B681B6D019308BD2802030086
:10439C0008B5024B1B685B69019308BD6C020300F6
:1043AC0008B5024B1B685B69019308BD64020300EE
:1043BC0008B5024B1B681B6A019308BD640203001D
:1043CC0008B5024B1B685B6A019308BD64020300CD
:1043DC0008B5024B1B689B6A019308BD640203007D
:1043EC0008B5024B1B689B68019308BD680203006B
:1043FC0008B5024B1B68DB68019308BD680203001B
:10440C0008B5024B1B685B68019308BD38020300BA
:10441C0008B5024B1B689B69019308BD3802030069
:10442C0008B5024B1B68DB69019308BD3802030019
:10443C0008B5024B1B68DB6A019308BD3802030008
:10444C0008B5024B1B685B6B019308BD3802030077
:10445C0008B5024B1B689B6B019308BD3802030027
:10446C0008B5024B1B68DB69019308BD30020300E1
:10447C0008B5024B1B681B6A019308BD3002030090
:10448C0008B5024B1B681B68019308BD3C02030076
:10449C0008B5024B1B68DB68019308BD3C020300A6
:1044AC0008B5024B1B681B69019308BD3C02030055
:1044BC0008B5024B1B685B69019308BD3C02030005
:1044CC0008B5024B1B689B69019308BD3C020300B5
:1044DC0008B5024B1B68DB69019308BD3C02030065
:1044EC0008B5024B1B681B6A019308BD3C02030014
:1044FC0008B5024B1B689B6A019308BD3C02030084
:10450C0008B5024B1B681B68019308BD4C020300E5
:10451C0008B5024B1B685B68019308BD4C02030095
:10452C0008B5024B1B681B69019308BD4C020300C4
:10453C0008B5024B1B685B69019308BD4C02030074
:10454C0008B5024B1B689B69019308BD4C02030024
:10455C0008B5024B1B68DB69019308BD4C020300D4
:10456C0008B5024B1B681B6A019308BD4C02030083
:10457C0008B5024B1B685B68019308BD2002030061
:10458C0008B5024B1B685B69019308BD2002030050
:10459C0008B5034B1B68D3F88830019308BD0000A5
:1045AC002002030008B5034B1B68D3F89430019329
:1045BC0008BD00002002030008B5024B1B68DB6B32
:1045CC00019308BD4402030008B5024B1B681B682D
:1045DC00019308BD4002030008B5024B1B685B68E1
:1045EC00019308BD4002030008B5024B1B689B6891
:1045FC00019308BD4002030008B5024B1B68DB6841
:10460C00019308BD4002030008B5024B1B681B69EF
:10461C00019308BD4002030008B5024B1B685B699F
:10462C00019308BD4002030008B5024B1B689B694F
:10463C00019308BD4002030008B5024B1B68DB69FF
:10464C00019308BD4002030008B5024B1B681B6AAE
:10465C00019308BD4002030008B5024B1B681B6B9D
:10466C00019308BD4002030008B5024B1B685B6B4D
:10467C00019308BD4002030008B5024B1B681B6880
:10468C00019308BD1C02030008B5024B1B685B6854
:10469C00019308BD1C02030008B5024B1B685B6C40
:1046AC00019308BD1C0203000021FFF769BF10B580
:1046BC000446006808B1FFF7FBFD204610BD000062
:1046CC0010B5064C002320462360FFF7E9FD204679
:1046DC00034A0449BDE8104000F0F6BF44E603204D
:1046EC00B8E50320BB460D0010B58368044613B132
:1046FC00032201469847204610BD0022406811460F
:10470C00FFF7A2BF002240681146FFF7ADBF40681B
:10471C000022FFF7A1BF4068002281F00101FFF7E2
:10472C008BBF002340681A461946FFF77DBF002354
:10473C0040681A461946FFF76FBF002240681146C1
:10474C00FFF762BF002240681146FFF74DBF40687B
:10475C0000220221FFF750BF002340681A46FFF7E2
:10476C003BBF0000024B03225A60024A1A6070479A
:10477C0048E603201C580D007047F8B50646154650
:10478C000C468F18BC4206D0336814F8011B9B688A
:10479C0030469847F6E72846F8BD007C0022FFF724
:1047AC00B7BD007C0021FFF7BBBD007C0021FFF7EB
:1047BC00BFBD007C0021FFF7C3BD007C0021FFF7CB
:1047CC00C7BD10B51421044600F083FF204610BD70
:1047DC0010B54FF47A73044608460021C4E901135E
:1047EC00034B236020741146FFF7C2FD204610BD19
:1047FC0050580D007FB500221423CDE90122ADF8ED
:10480C0004300B788DF808304B680393CB68049315
:10481C00007C0B7A059301A9FFF7B2FD07B05DF898
:10482C0004FB1FB5003B8DF800104FF064010391A1
:10483C0018BF0123694601928DF80830FFF7DAFFA3
:10484C0005B05DF804FB0123FFF7EBBFF0B5037D6A
:10485C00062B8DB00E4600F104074FF0000412D069
:10486C0000F1080515F8011D0A22304600F07FF909
:10487C00AF42044419D0002CF4D02E21304600F065
:10488C004DF90444EEE72F236A4639460A208DF889
:10489C000040FFF785FD684600F068FF336802466C
:1048AC00DB68694630469847044620460DB0F0BD9B
:1048BC0010B5054B0446112240F8043B002100F0D2
:1048CC0029FF204610BD00BF78580D000346074A4B
:1048DC0010B543F8042B01F1100251F8044B43F8C6
:1048EC00044B9142F9D10A781A7010BD78580D001A
:1048FC00037D042B04D14068003818BF0120704799
:10490C00062B07D143683BB983682BB9C3681BB925
:10491C000069F1E7002070470120704710B59DF841
:10492C00084044EA032343EA024242EA01610423B9
:10493C004160037510BD000037B5044D05609DF84E
:10494C0018500095FFF7EAFF03B030BD78580D0002
:10495C0013B5CB7800938B784A780978FFF7DEFF94
:10496C0002B010BD014B024A1A60704750E603209A
:10497C0084580D00002340681A46FFF72DBE40688E
:10498C0000220221FFF738BE002240681146FFF7D3
:10499C002BBE002240681146FFF736BE002340684C
:1049AC001A461946FFF738BE002340681A461946C6
:1049BC00FFF73ABE4068002281F00101FFF73CBED0
:1049CC0040680022FFF748BE002240681146FFF7FE
:1049DC004BBE002240681146FFF736BE2DE9F0436E
:1049EC00002495B016460D460746FFF761FF214699
:1049FC0018220EA8009400F08DFE4023CDE90C3453
:104A0C0021466B460CAA3046FFF7F2FC0446002800
:104A1C0046D1024601216868FFF7F6FD0221804667
:104A2C0022466868FFF7F0FD009E81462146002E65
:104A3C0036D0002934D17368022B03D00A2B0BD04B
:104A4C00F669F4E7B8F1000F04D071693846043107
:104A5C00FFF77EFF4146F3E7B9F1000F01D149465C
:104A6C00EEE77469102201A800F054FE06238DF8BD
:104A7C00143001AD04F108031834186859682A463B
:104A8C0003C20833A3421546F7D101A906A807AD06
:104A9C00FFF71CFF0FCD3C1D0FC42B682370DEE706
:104AAC000098FFF79DFC384615B0BDE8F083000078
:104ABC00024B034A1A6000225A60704754E60320E6
:104ACC0090580D00F8B506460D468F180024BD42CF
:104ADC000CD0336815F8011B9B6830469847031EB1
:104AEC0001DB1C44F3E7002C08BF1C462046F8BD34
:104AFC0013B50446084659B1019100F037FE2368FE
:104B0C000199DB680246204602B0BDE81040184708
:104B1C0002B010BD08B5FFF7EBFF08BD03689B683A
:104B2C0018470A680B46126801461846104738B5F4
:104B3C000D210546FFF7F2FF0A2104462846FFF730
:104B4C00EDFF204438BD38B50546FFF7D1FF0446CC
:104B5C002846FFF7ECFF204438BD38B50546FFF773
:104B6C00E0FF04462846FFF7E2FF204438BD30B58D
:104B7C008BB000238DF82430012A98BF0A2209AC8F
:104B8C000D46B1FBF2F101FB125303F0FF03092BAD
:104B9C0094BF30333733DBB2AA4204F8013DEFD96E
:104BAC002146FFF7A5FF0BB030BD10B50446FFF74B
:104BBC009BFD204610BD00000348044A0449002315
:104BCC00836000F081BD00BF5CE60320B8E50320E4
:104BDC00B74B0D0010B5044608462170FFF740FC9A
:104BEC0000236360204610BD10B50446006818B160
:104BFC00FFF74AFD0023236010BD10B50446FFF7F4
:104C0C00F3FF204610BD000010B5094B094C0222E1
:104C1C0000201A60084B2060A080A071A360FFF7F1
:104C2C00A7FC2046054A0649BDE8104000F04CBDE3
:104C3C0078E603206CE603200000FFFFB8E50320B4
:104C4C00074C0D00024B1A68024B1A60704700BFEC
:104C5C0050E503207CE6032010B40468246BA446C2
:104C6C005DF8044B604703689B6C1847808E704757
:104C7C00028FC08E101A704707B503688DF80710A5
:104C8C00DB6801220DF10701984703B05DF804FBC6
:104C9C0010B503681B690446984728B1E38EE26B94
:104CAC00591CE186D05C10BD4FF0FF30FBE710B50E
:104CBC0003681B690446984718B1E38EE26BD05C1D
:104CCC0010BD4FF0FF30FBE7704710B403460846A9
:104CDC00DC6BD98E1A8F0368521ADB6821445DF89D
:104CEC00044B1847A0F11000FFF7EFBF70B5036835
:104CFC008CB05B6A04460E461546984701231C226D
:104D0C00002105A8029300F005FD40F61C23304657
:104D1C00ADF81430FFF75CFB1122ADF81600022140
:104D2C000A20FFF795FB0028606125DB0422009226
:104D3C0002AB40F6FF71FFF76BFBE8B995B103903E
:104D4C00ADF8100003A9E8B2FFF722FBA0B90623C7
:104D5C000093606903AB41F20B0240F6FF71FFF761
:104D6C0057FB48B960691C2205A9FFF749FB18B924
:104D7C00656401200CB070BD236820465B6A9847BF
:104D8C000020F7E710B504464069002801DBFFF767
:104D9C0047FB4FF0FF3363610023E386238710BD8D
:104DAC0070B50546C06BEE8E68B12B6C9C1B9442A3
:104DBC0028BF14462246304400F09EFCEB8E234460
:104DCC00EB86204670BD0446F1E7D0B503681B693D
:104DDC0004460F461646984790B1236820461B6937
:104DEC009847E38EE16B8642A8BF064619443246CB
:104DFC00384600F081FCE38E3344E3863046D0BD68
:104E0C004FF0FF36FAE7000070B50446054B44F846
:104E1C00043B01F1200506460FCD0FC42B6823700F
:104E2C00304670BD78580D00F0B59646026889B0D2
:104E3C00976A0A4A02921C1D8C4606460FCC03AD9B
:104E4C000FC523682B70BDF838300093724602AB47
:104E5C0061463046B84709B0F0BD00BF78580D0028
:104E6C00F0B5036889B09F6A0C4B029300F12006E1
:104E7C0004460FCE03AD0FC533682B70A38EE28EA4
:104E8C00E16B0093204602ABB84723680546DB690B
:104E9C0020469847284609B0F0BD00BF78580D0051
:104EAC00F0B54378022B8DB005460C46174604D15D
:104EBC00011D2046FFF74CFD22E00A2B25D11122C3
:104ECC00002101A800F026FCAB6803B305F1080330
:104EDC0001AE05F1180C18685968324603C2083344
:104EEC0063451646F7D1062301A906A807AE8DF82F
:104EFC001430FFF7EBFC0FCE04340FC4336823706F
:104F0C001FB16888FFF75CFA38800DB0F0BDEB6814
:104F1C00002BDBD14FF6FF702E69FFF749FA864262
:104F2C00D4D105F11401C4E72DE9F04117468EB038
:104F3C000022064601AB084611460192FFF758FACB
:104F4C00041E20DB019B2BB35B691BB302A8FFF78C
:104F5C00AFFC019B0022586902A9FFF7A1FF02A830
:104F6C00FFF7C6FCB0B1336803ADD3F838800B4BF8
:104F7C0008930FCD09AC0FC42B6823703A4608A9CF
:104F8C003046C04704460198FFF72AFA20460EB077
:104F9C00BDE8F0814FF0FF34F5E700BF78580D0005
:104FAC002DE9F047D0F81490B9F1000F90B00546F8
:104FBC000E4690461C463CDB00293AD04FF01C0AAA
:104FCC0009AF52460021384600F0A4FBCDF80CA0E6
:104FDC00DCB100224FF47A70B4FBF0F3CDE904326B
:104FEC0000FB13435843102307920690009341F2A1
:104FFC0006026B4440F6FF714846FFF709FA044677
:10500C0020B1204610B0BDE8F087082403ABCDE9F1
:10501C0000736869234642463146FFF709FA041EBD
:10502C00EFDB05F1340205F11C013846FFF738FFC0
:10503C00E7E74FF0FF34E4E738B5054614462B7D1F
:10504C00062B084610D140F61C231380FFF7C0F93D
:10505C0008342B1D24F8060C143553F8042B44F893
:10506C00042BAB42F9D138BD042BFCD14FF40473A3
:10507C001380FFF7ADF960806868FFF799F96060FD
:10508C00F1E72DE9F0438BB003AF4FF01C099846C4
:10509C0004460D46164600214A46384600F03AFBB7
:1050AC00BDF848103A464046FFF7C6FF9DF80D3054
:1050BC0053B1CDE900796069002332462946FFF7E8
:1050CC00BFF90BB0BDE8F0834FF0FF30F9E70000FB
:1050DC0038B500254FF47A73C0E901530B4B03F13B
:1050EC0008026C3303614FF0FF33044602604361E6
:1050FC001C30FFF7DDFB4FF40073C4E91035E58677
:10510C002587E56384F84850204638BDD8580D00F3
:10511C0010B590F84830044623B1C06B10B1012192
:10512C0000F0D7FA0023E36384F848302364E38665
:10513C00238710BD70B5044616460D46FFF7E8FFF1
:10514C000023E66323642EB12564206C003818BF5D
:10515C00012070BD002DF8D02846FEF794FF0123E6
:10516C00E06384F848300028EFD0EDE7F8B5174637
:10517C00C26B05460C461AB9016C09B1FFF7DAFF90
:10518C0004340FCC05F120060FC6236833700023BE
:10519C00286CAF86EB862B87F8BD37B5C26B0446FF
:1051AC000B462AB9016C19B10193FFF7C3FF019BA0
:1051BC00E16B0022E286228741B1226C32B1206879
:1051CC00056B2046A8470028C8BF208723681B69A9
:1051DC00204603B0BDE83040184770474174704713
:1051EC0008B5007CFFF784F920EAE07008BD08B52B
:1051FC00007CFFF755F920EAE07008BD08B5007C8B
:10520C00FFF75EF940EAE07008BD08B5007CFFF7D7
:10521C004FF940EAE07008BD007CFFF759B937B58B
:10522C00457C04462DB1207C03B0BDE83040FFF72F
:10523C002FB9007C0191FFF75BF900280199F2DC92
:10524C00284603B030BD10B51421044600F041FAD5
:10525C00204610BD10B54FF0000C04460846114610
:10526C004FF47A72C4E901C2044A2260012220740C
:10527C0062741A46FFF704F9204610BD50590D0010
:10528C0013B50E4C2178BFF35B8F11F0010112D1D5
:10529C0020460191FEF7FBFE019960B1084A094BCB
:1052AC000948FFF7D7FF2046FEF7F6FE074A0849E4
:1052BC00054800F009FA044802B010BD80E603204E
:1052CC0084E6032008E703208CE70320B8E50320DD
:1052DC00E7510D0041747047704708B50021007C00
:1052EC00FFF72EF940EAE07008BD08B50121007CFB
:1052FC00FFF726F940EAE07008BD08B5007CFFF71F
:10530C0017F920EAE07008BD08B5007CFFF708F932
:10531C0020EAE07008BD13B50446007C0191FFF74C
:10532C0007F90028019901DC607C20B1207CFFF793
:10533C000FF920EAE07002B010BD007CFFF710B945
:10534C0010B51421044600F0C4F9204610BD00002D
:10535C0010B54FF47A73044608460021C4E90113D2
:10536C00044B23600123207463741146FFF7C8F8C3
:10537C00204610BD80590D00007C0022FFF7C8B8F4
:10538C0010B514220446002100F0C4F9204610BDCB
:10539C0010B5104C88B003A8FFF7F2FF2178BFF3CB
:1053AC005B8F11F0010111D120460191FEF76FFEC8
:1053BC00019958B103AA0848FFF7CAFF2046FEF727
:1053CC006BFE064A0649044800F07EF9024808B014
:1053DC0010BD00BFA0E70320A4E70320B8E503201D
:1053EC00E5520D00002240681146FFF70DB900226E
:1053FC0040681146FFF728B9002240681146FFF7B4
:10540C0033B940680022FFF727B94068002281F0C9
:10541C000101FFF711B9002340681A461946FFF73E
:10542C0003B9002340681A461946FFF7F5B8002265
:10543C0040681146FFF7D8B8406800220221FFF7F8
:10544C00DBB8002340681A46FFF7C6B8024B0422AB
:10545C005A60024A1A607047B8E70320B0590D0031
:10546C00014B1860704700BF54E5032008B50B4B87
:10547C0043B1FFF78DFF03681B699847002801DDD6
:10548C00AFF30080064B43B1FFF7FAFE03681B69CC
:10549C009847002801DDAFF3008008BD0000000034
:1054AC000000000008B5FFF7E1FFFEF711FF014B0C
:1054BC00186008BDD4E703200248034A0349121AB6
:1054CC0000F01AB900F4032004F40320105A0D0064
:1054DC0007B5002300931A466FF07701FFF762F8C7
:1054EC0003B05DF804FB000007B543880A2B08D015
:1054FC00502B0BD1094B1B684BB103B05DF804EB7F
:10550C001847FFF7E5FF03B05DF804FB0023009399
:10551C001A466FF07701FFF745F8F4E7C4E703206C
:10552C0038B5124C1248134D0021FFF7B5F823681B
:10553C00AB42114B0CBF012200221A7002D0FFF7B4
:10554C00BBFF2560FEF7BCFE044600F0EBF80B4BEE
:10555C0013B12046AFF3008000210848FFF72CF868
:10556C00BDE8384006480021FFF712B800F40320CC
:10557C006D540D001E1C279AC0E70320000000008C
:10558C00F5540D00232813B502D9002002B010BD2C
:10559C00A0F10B03022B1AD8174C2178BFF35B8FA9
:1055AC0011F001010BD120460191FEF770FD01991C
:1055BC0028B11248FFF70EFB2046FEF76DFD0F4B8E
:1055CC001878FEF755FF0028DFD10120DEE701280F
:1055DC0009D800F051F80021007CFEF7C1FE80F0E4
:1055EC000100C0B2D2E709380128EED8FFF748FE17
:1055FC00007CFEF775FFF2E7C8E70320CCE7032039
:10560C00232838B504460D460AD8FF2908D0FFF7E1
:10561C00B9FF28B129462046BDE83840FEF760BEE8
:10562C0038BD10B50446FEF763FE031FDBB2012B39
:10563C0008D92046FFF7A6FF20B12046BDE8104050
:10564C00FEF75EBE002010BD38B500232025438038
:10565C00142304460380856005610649284600F042
:10566C003AF804496060284600F035F8E0602046BE
:10567C0038BD00BFDC590D0030B50F4D2978BFF394
:10568C005B8F11F0010487B013D12846FEF7FFFCA5
:10569C0078B101A8FFF7D8FF01AA21460748FFF708
:1056AC0097F82846FEF7F8FC054A0649034800F02F
:1056BC000BF8024807B030BDD8E70320DCE7032025
:1056CC00B8E5032085470D000B460146184600F04F
:1056DC0005B8FEF7DABCFEF7D6BC000010B5054CD9
:1056EC0013462CB10A4601460220AFF3008010BDD0
:1056FC002046FCE7000000000A44914200F1FF3311
:10570C0000D1704710B511F8014B03F8014F9142CD
:10571C00F9D110BD02440346934200D1704703F8FF
:10572C00011BF9E738B50D4B1D68AB6B04467BB913
:10573C001820FEF7A1FF0A4A0A4BA863C0E9002310
:10574C00094B83600B23838101220023C0E90423CE
:10575C00AB6B00221C615A6138BD00BF54E50320BD
:10576C000E33CDAB34126DE6ECDE0500034613F8B8
:10577C00012B002AFBD1181A013870471D400D006F
:10578C0059400D0081400D0085400D0000000000C7
:10579C004152474F4E204950202844484350293A03
:1057AC0020002D2D2D2D2D2D2D2D2D2D2D2D2D2D57
:1057BC002D2D2D2D2D2D2D2D2D2D2D2D2D2D2D2D0D
:1057CC002D2D2D2D2D004D697374616B656E20523E
:1057DC0065616C697469657300436F6D706C657499
:1057EC00656420766F6964207365747570005374FA
:1057FC0061747573206F6620746F756368207374A1
:10580C0061746573000000000000000000000000DF
:10581C0065470D005B470D0051470D0047470D00D4
:10582C003B470D002F470D0023470D001B470D0074
:10583C0011470D0007470D00E9490D00000000005D
:10584C000000000085470D00CF470D00A7470D0055
:10585C0087470D00AF470D00B7470D00BF470D0040
:10586C00C7470D00000000000000000059480D0063
:10587C00AB400D00CD400D006170700000000000C9
:10588C000000000081490D008B490D0095490D0069
:10589C009F490D00A9490D00B5490D00C1490D00E6
:1058AC00CD490D00D5490D00DF490D00E9490D002A
:1058BC0025592D256D2D25645425483A254D3A251D
:1058CC0053257A0061736374696D650000000000F4
:1058DC0000000000AD400D00DB400D00854C0D00BC
:1058EC00AD4D0D007D4C0D009D4C0D00BB4C0D00C5
:1058FC00D54C0D00F94C0D00914D0D008F500D0045
:10590C00354E0D00AD4F0D00654C0D0079510D005D
:10591C00354F0D006D4E0D00A7510D00D74D0D00EC
:10592C00734C0D00154E0D00794C0D00D74C0D002D
:10593C00F0FFFFFF00000000F14C0D000000000024
:10594C0000000000E7510D0053520D002B520D00CA
:10595C00D14A0D00FB510D0017520D0009520D00DC
:10596C0025520D00E9510D00ED510D000000000015
:10597C0000000000E5520D004D530D0023530D00A7
:10598C00D14A0D0015530D00E7520D00F7520D00D2
:10599C0047530D0007530D00E1520D0000000000AD
:1059AC00000000004F540D0045540D003B540D00F9
:1059BC00F1530D002F540D0023540D0017540D00FE
:1059CC000F540D0005540D00FB530D00E9490D005B
:1059DC000000000049420D00CD460D0071470D003E
:1059EC0071490D00BD4A0D00C54B0D00154C0D0045
:1059FC00514C0D0059540D00000000000000000037
:045A0C000000000096
:045A10000000000092
:105A1400D0580D0058E503200000000000000000ED
:105A24000000000000000000000000000000000072
:105A34000000000000000000000000000000000062
:105A44000000000000000000000000000000000052
:105A54000000000000000000000000000000000042
:105A64000000000000000000000000000000000032
:085A740000000000000000002A
:105A7C00FFFFFFFF00000102030405060708090AE7
:105A8C000B0C0D0E0F101112131415161718191AE2
:085A9C001B1C1D1E1F20280029
:045AA40078563412EA
:04000003D000401CCD
:00000001FF
