:02000002D0002C
:1040000000400D00C45C0D00000006000C0005011E
:084010000401DB0700000000C1
:04401800CC590D0072
:10401C0009480A49884208B505D0094A824202D0AB
:10402C00121A01F08BFC0748074A0021121A01F002
:10403C0093FC014808BD00BF50E50320345C0D0023
:10404C00B8E50320B8E50320F0E7032070B5074E70
:10405C00074C01F06DFBA41BA4080025A54200D160
:10406C0070BD56F8043B98470135F7E70C5C0D0022
:10407C00305C0D0000F082B908B500F093F8BDE893
:10408C00084001F017BB00F0EBBB00F0F1BB00786F
:10409C00B0FA80F0400970470123037070477047F5
:1040AC0010B5064B036064330446036100F072FFE5
:1040BC00204601F035F9204610BD00BF0C5B0D0009
:1040CC0010B51821044601F026FC204610BD10B591
:1040DC000446FFF7E5FF20464C2101F01CFC20466E
:1040EC0010BD000030B5144C0023606887B01A4630
:1040FC00194600F065FB00226068114600F078FB61
:10410C000028F8D0052000F0C3FB01F049FA0B4958
:10411C0000F008FE01F044FA0022114605466068E2
:10412C0000F046FB811C684600F0D8FC6946284626
:10413C0000F01BFE07B030BDB8E70320E0590D00BE
:10414C0008B580B201F08EFB003818BF012008BD05
:10415C0038B50720FFF7F4FF0546F8B901F0AEFBC0
:10416C0002225A2100F069FC01F0A8FB03685B698C
:10417C009847044601F0A2FB03685B699847E4B2D8
:10418C0044EA0024064AA4B2284644FA00F301305B
:10419C0003F001030C2802F8013BF6D138BD00BF37
:1041AC0038E6032008B5FFF7D3FFBDE808403220FE
:1041BC0000F06EBB70B5064614460D4601F07EFB52
:1041CC00314600F041FC01F079FB036829469B68FD
:1041DC00984701F073FB036821469B68984701F0F0
:1041EC006DFBBDE8704000F036BC10B500220446F3
:1041FC005E21FFF7DFFF204601222B21FFF7DAFFBC
:10420C00204601222C21FFF7D5FF204600222D212C
:10421C00FFF7D0FF204600222E21FFF7CBFF2046D0
:10422C0001222F21FFF7C6FF204601223021FFF784
:10423C00C1FF2046FF223121FFF7BCFF204602229E
:10424C003221FFF7B7FF204606224121FFF7B2FFCC
:10425C0020460A224221FFF7ADFF204606224321C9
:10426C00FFF7A8FF20460A224421FFF7A3FF2046B0
:10427C0006224521FFF79EFF20460A224621FFF722
:10428C0099FF204606224721FFF794FF20460A2279
:10429C004821FFF78FFF204606224921FFF78AFFAE
:1042AC0020460A224A21FFF785FF204606224B2191
:1042BC00FFF780FF20460A224C21FFF77BFF2046A8
:1042CC0006224D21FFF776FF20460A224E21FFF7EA
:1042DC0071FF204606224F21FFF76CFF20460A2271
:1042EC005021FFF767FF204606225121FFF762FF9E
:1042FC0020460A225221FFF75DFF20460622532159
:10430C00FFF758FF20460A225421FFF753FF20469F
:10431C0006225521FFF74EFF20460A225621FFF7B1
:10432C0049FF204606225721FFF744FF20460A2268
:10433C005821FFF73FFF204604225D21FFF73AFF8B
:10434C0020460C225E21FFF735FF20460C22BDE8EB
:10435C0010405E21FFF72EBF08B50021072001F0A9
:10436C0057FA0121072001F064FA01F0A7FA00F0D6
:10437C0035FBBDE808405A20FFF737BF10B501F0F8
:10438C000FF9154C4FF4165101F0FEF801F008F935
:10439C0000F0D5FC01F004F9214600F0DCFC01F042
:1043AC00FFF80E4900F0D7FC01F0FAF8214600F0B6
:1043BC00D2FC0221084601F02BFAFFF7CDFFFFF7E4
:1043CC0091FE052000F064FA01F0EAF8BDE8104017
:1043DC00034900F0C0BC00BFF2590D00165A0D0085
:1043EC00295A0D0073B5124D124C134E284600F08D
:1043FC0077FF2846114D1249224601F087FA2846CC
:10440C0000F05EFB2246314628460E4D01F07EFA46
:10441C0009230093A8220123C021284600F094FB15
:10442C0022463146284602B0BDE8704001F06EBA13
:10443C00BCE50320B8E50320AB400D0008E60320E3
:10444C00AD400D0020E6032008B5024B1B685B6CE9
:10445C00019308BD4802030008B5024B1B689B6C16
:10446C00019308BD4802030008B5024B1B685B684A
:10447C00019308BD1802030008B5024B1B685B6969
:10448C00019308BD1802030008B5024B1B689B681A
:10449C00019308BD2C02030008B5024B1B68DB68B6
:1044AC00019308BD2C02030008B5024B1B681B6965
:1044BC00019308BD2C02030008B5024B1B685B6915
:1044CC00019308BD2C02030008B5024B1B68DB6886
:1044DC00019308BD2802030008B5024B1B689B69B9
:1044EC00019308BD2802030008B5024B1B68DB6969
:1044FC00019308BD2802030008B5024B1B681B6A18
:10450C00019308BD2802030008B5024B1B685B6AC7
:10451C00019308BD2802030008B5024B1B689B6A77
:10452C00019308BD2802030008B5024B1B68DB6A27
:10453C00019308BD2802030008B5024B1B681B6BD6
:10454C00019308BD2802030008B5024B1B685B6B86
:10455C00019308BD2802030008B5024B1B681B6CB5
:10456C00019308BD2802030008B5024B1B681B6DA4
:10457C00019308BD2802030008B5024B1B685B6958
:10458C00019308BD6C02030008B5024B1B685B6904
:10459C00019308BD6402030008B5024B1B681B6A3B
:1045AC00019308BD6402030008B5024B1B685B6AEB
:1045BC00019308BD6402030008B5024B1B689B6A9B
:1045CC00019308BD6402030008B5024B1B689B688D
:1045DC00019308BD6802030008B5024B1B68DB6839
:1045EC00019308BD6802030008B5024B1B685B68A9
:1045FC00019308BD3802030008B5024B1B689B6988
:10460C00019308BD3802030008B5024B1B68DB6937
:10461C00019308BD3802030008B5024B1B68DB6A26
:10462C00019308BD3802030008B5024B1B685B6B95
:10463C00019308BD3802030008B5024B1B689B6B45
:10464C00019308BD3802030008B5024B1B68DB69F7
:10465C00019308BD3002030008B5024B1B681B6AAE
:10466C00019308BD3002030008B5024B1B681B68A0
:10467C00019308BD3C02030008B5024B1B68DB68C4
:10468C00019308BD3C02030008B5024B1B681B6973
:10469C00019308BD3C02030008B5024B1B685B6923
:1046AC00019308BD3C02030008B5024B1B689B69D3
:1046BC00019308BD3C02030008B5024B1B68DB6983
:1046CC00019308BD3C02030008B5024B1B681B6A32
:1046DC00019308BD3C02030008B5024B1B689B6AA2
:1046EC00019308BD3C02030008B5024B1B681B6814
:1046FC00019308BD4C02030008B5024B1B685B68B4
:10470C00019308BD4C02030008B5024B1B681B69E2
:10471C00019308BD4C02030008B5024B1B685B6992
:10472C00019308BD4C02030008B5024B1B689B6942
:10473C00019308BD4C02030008B5024B1B68DB69F2
:10474C00019308BD4C02030008B5024B1B681B6AA1
:10475C00019308BD4C02030008B5024B1B685B6853
:10476C00019308BD2002030008B5024B1B685B696E
:10477C00019308BD2002030008B5034B1B68D3F856
:10478C008830019308BD00002002030008B5034BDC
:10479C001B68D3F89430019308BD0000200203007D
:1047AC0008B5024B1B68DB6B019308BD4402030088
:1047BC0008B5024B1B681B68019308BD400203003F
:1047CC0008B5024B1B685B68019308BD40020300EF
:1047DC0008B5024B1B689B68019308BD400203009F
:1047EC0008B5024B1B68DB68019308BD400203004F
:1047FC0008B5024B1B681B69019308BD40020300FE
:10480C0008B5024B1B685B69019308BD40020300AD
:10481C0008B5024B1B689B69019308BD400203005D
:10482C0008B5024B1B68DB69019308BD400203000D
:10483C0008B5024B1B681B6A019308BD40020300BC
:10484C0008B5024B1B681B6B019308BD40020300AB
:10485C0008B5024B1B685B6B019308BD400203005B
:10486C0008B5024B1B681B68019308BD1C020300B2
:10487C0008B5024B1B685B68019308BD1C02030062
:10488C0008B5024B1B685B6C019308BD1C0203004E
:10489C000021FFF769BF10B50446006808B1FFF7A7
:1048AC00DBFD204610BD000010B5064C0023204651
:1048BC002360FFF7C9FD2046034A0449BDE81040B8
:1048CC0001F024B844E60320B8E50320A3480D000A
:1048DC0010B58368044613B103220146984720465D
:1048EC0010BD002240681146FFF7A2BF00224068AD
:1048FC001146FFF7ADBF40680022FFF7A1BF40682B
:10490C00002281F00101FFF78BBF002340681A469B
:10491C001946FFF77DBF002340681A461946FFF77A
:10492C006FBF002240681146FFF762BF002240684B
:10493C001146FFF74DBF406800220221FFF750BF20
:10494C00002340681A46FFF73BBF0000024B0322CE
:10495C005A60024A1A60704748E60320485A0D0014
:10496C007047F8B5064615460C468F18BC4206D063
:10497C00336814F8011B9B6830469847F6E72846C5
:10498C00F8BD007C0022FFF7B7BD007C0021FFF7CB
:10499C00BBBD007C0021FFF7BFBD007C0021FFF7F1
:1049AC00C3BD007C0021FFF7C7BD10B51421044620
:1049BC0000F0B1FF204610BD10B54FF47A730446D9
:1049CC0008460021C4E90113034B236020741146EF
:1049DC00FFF7C2FD204610BD7C5A0D000023007C61
:1049EC001A461946FFF770BD7FB500221423CDE996
:1049FC000122ADF804300B788DF808304B68039326
:104A0C00CB680493007C0B7A059301A9FFF7ACFDEE
:104A1C0007B05DF804FB1FB5003B8DF800104FF09C
:104A2C006401039118BF0123694601928DF8083087
:104A3C00FFF7DAFF05B05DF804FB0123FFF7EBBFCE
:104A4C00007C0022FFF748BDC9B2FFF7F9BF007C1C
:104A5C000022FFF749BD0121FFF7F9BFF0B5037D37
:104A6C00062B8DB00E4600F104074FF0000412D057
:104A7C0000F1080515F8011D0A22304600F07FF9F7
:104A8C00AF42044419D0002CF4D02E21304600F053
:104A9C004DF90444EEE72F236A4639460A208DF877
:104AAC000040FFF771FD684600F082FF3368024654
:104ABC00DB68694630469847044620460DB0F0BD89
:104ACC0010B5054B0446112240F8043B002100F0C0
:104ADC0043FF204610BD00BFA45A0D000346074AF1
:104AEC0010B543F8042B01F1100251F8044B43F8B4
:104AFC00044B9142F9D10A781A7010BDA45A0D00DA
:104B0C00037D042B04D14068003818BF0120704786
:104B1C00062B07D143683BB983682BB9C3681BB913
:104B2C000069F1E7002070470120704710B59DF82F
:104B3C00084044EA032343EA024242EA01610423A7
:104B4C004160037510BD000037B5044D05609DF83C
:104B5C0018500095FFF7EAFF03B030BDA45A0D00C2
:104B6C0013B5CB7800938B784A780978FFF7DEFF82
:104B7C0002B010BD014B024A1A60704750E6032088
:104B8C00B05A0D00002340681A46FFF719BE406862
:104B9C0000220221FFF724BE002240681146FFF7D5
:104BAC0017BE002240681146FFF722BE0023406862
:104BBC001A461946FFF724BE002340681A461946C8
:104BCC00FFF726BE4068002281F00101FFF728BEE6
:104BDC0040680022FFF734BE002240681146FFF700
:104BEC0037BE002240681146FFF722BE2DE9F04384
:104BFC00002495B016460D460746FFF761FF214687
:104C0C0018220EA8009400F0A7FE4023CDE90C3426
:104C1C0021466B460CAA3046FFF7DEFC0446002802
:104C2C0046D1024601216868FFF7E2FD0221804669
:104C3C0022466868FFF7DCFD009E81462146002E67
:104C4C0036D0002934D17368022B03D00A2B0BD039
:104C5C00F669F4E7B8F1000F04D0716938460431F5
:104C6C00FFF77EFF4146F3E7B9F1000F01D149464A
:104C7C00EEE77469102201A800F06EFE06238DF891
:104C8C00143001AD04F108031834186859682A4629
:104C9C0003C20833A3421546F7D101A906A807ADF4
:104CAC00FFF71CFF0FCD3C1D0FC42B682370DEE7F4
:104CBC000098FFF789FC384615B0BDE8F08300007A
:104CCC00024B034A1A6000225A60704754E60320D4
:104CDC00BC5A0D00F8B506460D468F180024BD428F
:104CEC000CD0336815F8011B9B6830469847031E9F
:104CFC0001DB1C44F3E7002C08BF1C462046F8BD22
:104D0C0013B50446084659B1019100F051FE2368D1
:104D1C000199DB680246204602B0BDE810401847F6
:104D2C0002B010BD08B5FFF7EBFF08BD03689B6828
:104D3C0018470A680B46126801461846104738B5E2
:104D4C000D210546FFF7F2FF0A2104462846FFF71E
:104D5C00EDFF204438BD38B50546FFF7D1FF0446BA
:104D6C002846FFF7ECFF204438BD38B50546FFF761
:104D7C00E0FF04462846FFF7E2FF204438BD30B57B
:104D8C008BB000238DF82430012A98BF0A2209AC7D
:104D9C000D46B1FBF2F101FB125303F0FF03092B9B
:104DAC0094BF30333733DBB2AA4204F8013DEFD95C
:104DBC002146FFF7A5FF0BB030BD10B50446FFF739
:104DCC0087FD204610BD00000348044A0449002317
:104DDC00836000F09BBD00BF5CE60320B8E50320B8
:104DEC00C74D0D0010B5044608462170FFF72CFC8A
:104DFC0000236360204610BD10B50446006818B14E
:104E0C00FFF736FD0023236010BD10B50446FFF7F5
:104E1C00F3FF204610BD000010B5094B094C0222CF
:104E2C0000201A60084B2060A080A071A360FFF7DF
:104E3C0093FC2046054A0649BDE8104000F066BDCB
:104E4C0078E603206CE603200000FFFFB8E50320A2
:104E5C00174E0D00024B1A68024B1A60704700BFC8
:104E6C0050E503207CE6032010B40468246BA446B0
:104E7C005DF8044B604703689B6C1847808E704745
:104E8C00028FC08E101A704707B503688DF8071093
:104E9C00DB6801220DF10701984703B05DF804FBB4
:104EAC0010B503681B690446984728B1E38EE26B82
:104EBC00591CE186D05C10BD4FF0FF30FBE710B5FC
:104ECC0003681B690446984718B1E38EE26BD05C0B
:104EDC0010BD4FF0FF30FBE7704710B40346084697
:104EEC00DC6BD98E1A8F0368521ADB6821445DF88B
:104EFC00044B1847A0F11000FFF7EFBF70B5036823
:104F0C008CB05B6A04460E461546984701231C225A
:104F1C00002105A8029300F01FFD40F61C2330462B
:104F2C00ADF81430FFF748FB1122ADF81600022142
:104F3C000A20FFF781FB0028606125DB0422009228
:104F4C0002AB40F6FF71FFF757FBE8B995B1039040
:104F5C00ADF8100003A9E8B2FFF70EFBA0B90623C9
:104F6C000093606903AB41F20B0240F6FF71FFF74F
:104F7C0043FB48B960691C2205A9FFF735FB18B93A
:104F8C00656401200CB070BD236820465B6A9847AD
:104F9C000020F7E710B504464069002801DBFFF755
:104FAC0033FB4FF0FF3363610023E386238710BD8F
:104FBC0070B50546C06BEE8E68B12B6C9C1B944291
:104FCC0028BF14462246304400F0B8FCEB8E234434
:104FDC00EB86204670BD0446F1E7D0B503681B692B
:104FEC0004460F461646984790B1236820461B6925
:104FFC009847E38EE16B8642A8BF064619443246B9
:10500C00384600F09BFCE38E3344E3863046D0BD3B
:10501C004FF0FF36FAE7000070B50446054B44F834
:10502C00043B01F1200506460FCD0FC42B682370FD
:10503C00304670BDA45A0D00F0B59646026889B092
:10504C00976A0A4A02921C1D8C4606460FCC03AD89
:10505C000FC523682B70BDF838300093724602AB35
:10506C0061463046B84709B0F0BD00BFA45A0D00E8
:10507C00F0B5036889B09F6A0C4B029300F12006CF
:10508C0004460FCE03AD0FC533682B70A38EE28E92
:10509C00E16B0093204602ABB84723680546DB69F9
:1050AC0020469847284609B0F0BD00BFA45A0D0011
:1050BC00F0B54378022B8DB005460C46174604D14B
:1050CC00011D2046FFF74CFD22E00A2B25D11122B1
:1050DC00002101A800F040FCAB6803B305F1080304
:1050EC0001AE05F1180C18685968324603C2083332
:1050FC0063451646F7D1062301A906A807AE8DF81D
:10510C001430FFF7EBFC0FCE04340FC4336823705C
:10511C001FB16888FFF748FA38800DB0F0BDEB6816
:10512C00002BDBD14FF6FF702E69FFF735FA864264
:10513C00D4D105F11401C4E72DE9F04117468EB026
:10514C000022064601AB084611460192FFF744FACD
:10515C00041E20DB019B2BB35B691BB302A8FFF77A
:10516C00AFFC019B0022586902A9FFF7A1FF02A81E
:10517C00FFF7C6FCB0B1336803ADD3F838800B4BE6
:10518C0008930FCD09AC0FC42B6823703A4608A9BD
:10519C003046C04704460198FFF716FA20460EB079
:1051AC00BDE8F0814FF0FF34F5E700BFA45A0D00C5
:1051BC002DE9F047D0F81490B9F1000F90B00546E6
:1051CC000E4690461C463CDB00293AD04FF01C0A98
:1051DC0009AF52460021384600F0BEFBCDF80CA0BA
:1051EC00DCB100224FF47A70B4FBF0F3CDE9043259
:1051FC0000FB13435843102307920690009341F28F
:10520C0006026B4440F6FF714846FFF7F5F9044679
:10521C0020B1204610B0BDE8F087082403ABCDE9DF
:10522C0000736869234642463146FFF7F5F9041EC0
:10523C00EFDB05F1340205F11C013846FFF738FFAE
:10524C00E7E74FF0FF34E4E738B5054614462B7D0D
:10525C00062B084610D140F61C231380FFF7ACF93F
:10526C0008342B1D24F8060C143553F8042B44F881
:10527C00042BAB42F9D138BD042BFCD14FF4047391
:10528C001380FFF799F960806868FFF785F9606013
:10529C00F1E72DE9F0438BB003AF4FF01C099846B2
:1052AC0004460D46164600214A46384600F054FB8B
:1052BC00BDF848103A464046FFF7C6FF9DF80D3042
:1052CC0053B1CDE900796069002332462946FFF7D6
:1052DC00ABF90BB0BDE8F0834FF0FF30F9E70000FD
:1052EC0038B500254FF47A73C0E901530B4B03F129
:1052FC0008026C3303614FF0FF33044602604361D4
:10530C001C30FFF7DDFB4FF40073C4E91035E58664
:10531C002587E56384F84850204638BD045B0D00B2
:10532C0010B590F84830044623B1C06B10B1012180
:10533C0000F0F1FA0023E36384F848302364E38639
:10534C00238710BD70B5044616460D46FFF7E8FFDF
:10535C000023E66323642EB12564206C003818BF4B
:10536C00012070BD002DF8D02846FEF78CFE0123DD
:10537C00E06384F848300028EFD0EDE7F8B5174625
:10538C00C26B05460C461AB9016C09B1FFF7DAFF7E
:10539C0004340FCC05F120060FC6236833700023AC
:1053AC00286CAF86EB862B87F8BD37B5C26B0446ED
:1053BC000B462AB9016C19B10193FFF7C3FF019B8E
:1053CC00E16B0022E286228741B1226C32B1206867
:1053DC00056B2046A8470028C8BF208723681B6997
:1053EC00204603B0BDE83040184770474174704701
:1053FC0008B5007CFFF770F920EAE07008BD08B52D
:10540C00007CFFF741F920EAE07008BD08B5007C8C
:10541C00FFF74AF940EAE07008BD08B5007CFFF7D9
:10542C003BF940EAE07008BD007CFFF745B937B5A1
:10543C00457C04462DB1207C03B0BDE83040FFF71D
:10544C001BB9007C0191FFF747F900280199F2DCA8
:10545C00284603B030BD10B51421044600F05BFAA9
:10546C00204610BD10B54FF0000C044608461146FE
:10547C004FF47A72C4E901C2044A226001222074FA
:10548C0062741A46FFF7F0F8204610BD7C5B0D00E5
:10549C0013B50E4C2178BFF35B8F11F0010112D1C3
:1054AC0020460191FEF7F3FD019960B1084A094BC2
:1054BC000948FFF7D7FF2046FEF7EEFD074A0849DB
:1054CC00054800F023FA044802B010BD80E6032022
:1054DC0084E6032008E703208CE70320B8E50320CB
:1054EC00F7530D0041747047704708B50021007CDC
:1054FC00FFF71AF940EAE07008BD08B50121007CFD
:10550C00FFF712F940EAE07008BD08B5007CFFF720
:10551C0003F920EAE07008BD08B5007CFFF7F4F849
:10552C0020EAE07008BD13B50446007C0191FFF73A
:10553C00F3F80028019901DC607C20B1207CFFF796
:10554C00FBF820EAE07002B010BD007CFFF7FCB85D
:10555C0010B51421044600F0DEF9204610BD000001
:10556C0010B54FF47A73044608460021C4E90113C0
:10557C00044B23600123207463741146FFF7B4F8C5
:10558C00204610BDAC5B0D00007C0022FFF7B4B8C8
:10559C0010B514220446002100F0DEF9204610BD9F
:1055AC0010B5104C88B003A8FFF7F2FF2178BFF3B9
:1055BC005B8F11F0010111D120460191FEF767FDBF
:1055CC00019958B103AA0848FFF7CAFF2046FEF715
:1055DC0063FD064A0649044800F098F9024808B0F1
:1055EC0010BD00BFA0E70320A4E70320B8E503200B
:1055FC00F5540D00002240681146FFF7F9B800225F
:10560C0040681146FFF714B9002240681146FFF7B5
:10561C001FB940680022FFF713B94068002281F0DF
:10562C000101FFF7FDB8002340681A461946FFF741
:10563C00EFB8002340681A461946FFF7E1B800227C
:10564C0040681146FFF7C4B8406800220221FFF7FA
:10565C00C7B8002340681A46FFF7B2B8024B0422C1
:10566C005A60024A1A607047B8E70320DC5B0D00F1
:10567C00014B1860704700BF54E5032008B50B4B75
:10568C0043B1FFF78DFF03681B699847002801DDC4
:10569C00AFF30080064B43B1FFF7FAFE03681B69BA
:1056AC009847002801DDAFF3008008BD0000000022
:1056BC000000000008B5FFF7E1FFFEF7DDFE014B2F
:1056CC00186008BDD4E703200248034A0349121AA4
:1056DC0000F034B900F4032004F40320305C0D0016
:1056EC0007B5002300931A466FF07701FFF74EF8C9
:1056FC0003B05DF804FB000007B543880A2B08D003
:10570C00502B0BD1094B1B684BB103B05DF804EB6C
:10571C001847FFF7E5FF03B05DF804FB0023009387
:10572C001A466FF07701FFF731F8F4E7C4E703206E
:10573C0038B5124C1248134D0021FFF7A1F823681D
:10574C00AB42114B0CBF012200221A7002D0FFF7A2
:10575C00BBFF2560FEF788FE044600F005F90B4BF5
:10576C0013B12046AFF3008000210848FFF718F86A
:10577C00BDE8384006480021FEF7FEBF00F40320C8
:10578C007D560D001E1C279AC0E703200000000068
:10579C0005570D00232813B502D9002002B010BD07
:1057AC00A0F10B03022B1AD8174C2178BFF35B8F97
:1057BC0011F001010BD120460191FEF768FC019913
:1057CC0028B11248FFF70EFB2046FEF765FC0F4B85
:1057DC001878FEF741FF0028DFD10120DEE7012811
:1057EC0009D800F06BF80021007CFEF7ADFE80F0CC
:1057FC000100C0B2D2E709380128EED8FFF748FE05
:10580C00007CFEF761FFF2E7C8E70320CCE703203A
:10581C00232838B504460D460AD8FF2908D0FFF7CF
:10582C00B9FF28B129462046BDE83840FEF72CBE0A
:10583C0038BD38B504460D46FEF72EFEFF2810D0B5
:10584C00062804D84D2323FA00F0C30709D42046B8
:10585C00FFF7A0FF28B129462046BDE83840FEF7E7
:10586C0023BE38BD10B50446FEF716FE031FDBB28F
:10587C00012B08D92046FFF78DFF20B12046BDE84B
:10588C001040FEF719BE002010BD000038B50023F3
:10589C002025438014230446038085600561064956
:1058AC00284600F03AF804496060284600F035F8C4
:1058BC00E060204638BD00BF085C0D0030B50F4DD0
:1058CC002978BFF35B8F11F0010487B013D1284600
:1058DC00FEF7DDFB78B101A8FFF7D8FF01AA21463E
:1058EC000748FFF769F82846FEF7D6FB054A064934
:1058FC00034800F00BF8024807B030BDD8E703208E
:10590C00DCE70320B8E503206D490D000B4601468A
:10591C00184600F005B8FEF7B8BBFEF7B4BB0000A4
:10592C0010B5054C13462CB10A4601460220AFF3C4
:10593C00008010BD2046FCE7000000000A449142A4
:10594C0000F1FF3300D1704710B511F8014B03F88B
:10595C00014F9142F9D110BD02440346934200D14C
:10596C00704703F8011BF9E738B50D4B1D68AB6B9D
:10597C0004467BB91820FEF773FF0A4A0A4BA8634A
:10598C00C0E90023094B83600B2383810122002390
:10599C00C0E90423AB6B00221C615A6138BD00BF07
:1059AC0054E503200E33CDAB34126DE6ECDE05006E
:1059BC00034613F8012B002AFBD1181A0138704743
:1059CC001D400D0059400D0081400D0085400D001B
:1059DC00000000004152474F4E20495020284448B7
:1059EC004350293A20002D2D2D2D2D2D2D2D2D2DD3
:1059FC002D2D2D2D2D2D2D2D2D2D2D2D2D2D2D2DCB
:105A0C002D2D2D2D2D2D2D2D2D004D697374616B8C
:105A1C00656E205265616C697469657300436F6DC6
:105A2C00706C6574656420766F6964207365747539
:105A3C007000000000000000000000004D490D0047
:105A4C0043490D0039490D002F490D0023490D0024
:105A5C0017490D000B490D0003490D00F9480D00C5
:105A6C00EF480D00F94B0D00000000000000000095
:105A7C006D490D00B7490D008F490D006F490D00A0
:105A8C0097490D009F490D00A7490D00AF490D0026
:105A9C000000000000000000694A0D00AB400D0042
:105AAC00CD400D006170700000000000000000008F
:105ABC00914B0D009B4B0D00A54B0D00AF4B0D00FA
:105ACC00B94B0D00C54B0D00D14B0D00DD4B0D003E
:105ADC00E54B0D00EF4B0D00F94B0D0025592D2515
:105AEC006D2D25645425483A254D3A2553257A00C9
:105AFC0061736374696D65000000000000000000B4
:105B0C00AD400D00DB400D00954E0D00BD4F0D005E
:105B1C008D4E0D00AD4E0D00CB4E0D00E54E0D0023
:105B2C00094F0D00A14F0D009F520D0045500D0067
:105B3C00BD510D00754E0D0089530D0045510D00E2
:105B4C007D500D00B7530D00E74F0D00834E0D0037
:105B5C0025500D00894E0D00E74E0D00F0FFFFFFA4
:105B6C0000000000014F0D000000000000000000CC
:105B7C00F7530D0063540D003B540D00E14C0D0028
:105B8C000B540D0027540D0019540D0035540D0005
:105B9C00F9530D00FD530D00000000000000000043
:105BAC00F5540D005D550D0033550D00E14C0D0005
:105BBC0025550D00F7540D0007550D0057550D00D8
:105BCC0017550D00F1540D000000000000000000FE
:105BDC005F560D0055560D004B560D0001560D002D
:105BEC003F560D0033560D0027560D001F560D0065
:105BFC0015560D000B560D00F94B0D000000000062
:105C0C00F1430D00B5480D0059490D00814B0D00B5
:105C1C00CD4C0D00D54D0D00254E0D00614E0D00E7
:045C2C0069560D00A8
:045C30000000000070
:105C3400FC5A0D0058E5032000000000000000009D
:105C44000000000000000000000000000000000050
:105C54000000000000000000000000000000000040
:105C64000000000000000000000000000000000030
:105C74000000000000000000000000000000000020
:105C84000000000000000000000000000000000010
:085C9400000000000000000008
:105C9C00FFFFFFFF00000102030405060708090AC5
:105CAC000B0C0D0E0F101112131415161718191AC0
:085CBC001B1C1D1E1F20280007
:045CC40078563412C8
:04000003D000401CCD
:00000001FF
