:02000002D0002C
:1040000000400D00A86D0D00000006000C00050129
:084010000401DB0700000000C1
:04401800786A0D00B5
:10401C0009480A49884208B505D0094A824202D0AB
:10402C00121A02F0D9FC0748074A0021121A02F0B2
:10403C00E1FC014808BD00BF3CE50320146D0D00F8
:10404C00A8E50320A8E50320F0E7032070B5074E90
:10405C00074C01F0F1FEA41BA4080025A54200D1D9
:10406C0070BD56F8043B98470135F7E7E46C0D003A
:10407C00086D0D0000F068BA08B500F075F9BDE8E0
:10408C00084001F09BBE00F0F1BD00F0F7BD0078D8
:10409C00B0FA80F0400970470123037070477047F5
:1040AC0010B5064B036064330446036101F0F6FA65
:1040BC00204601F0B9FC204610BD00BFE46B0D009A
:1040CC0010B51821044601F0C0FF204610BD10B5F4
:1040DC000446FFF7E5FF20464C2101F0B6FF2046D1
:1040EC0010BD000030B5144C0023606887B01A4630
:1040FC00194600F06BFD00226068114600F07EFD51
:10410C000028F8D0052000F0D1FD01F0CDFD0B49C1
:10411C0001F016F801F0C8FD002211460546606852
:10412C0000F04CFD811C684600F0E6FE694628460E
:10413C0001F029F807B030BDB8E703208C6A0D00F8
:10414C0030B59FB001688DED010A09A800F072FA34
:10415C000C4D9DED010A09A800F0ABFA0A4B039334
:10416C000FCD04AC0FC42B682370084B08491B6897
:10417C0003AA09A800F0C8FA09A800F07DFA1FB03C
:10418C0030BD00BF24E603206C6B0D003CE5032022
:10419C00ACE5032030B52DED028B132087B001F078
:1041AC00F8FE07EE900A314DF8EEE77AC5ED007A8D
:1041BC0000F058FB95ED007AF7EE007AB4EEE77A52
:1041CC00F1EE10FA0446B0EE678A1DDD01F06CFDCD
:1041DC00274900F0B5FF01F067FD95ED000A0221BB
:1041EC0001F0CDF895ED000A22498DED010A02A8E7
:1041FC0001F03DF99DED010A02A8FFF7A1FF02A80D
:10420C0001F0EAF81C4B1C60122001F0C2FE07EE14
:10421C00900AF8EEE77A194DF4EEC87AF1EE10FA3E
:10422C00C5ED007A1DDD01F03FFD154900F088FF5A
:10423C0001F03AFD95ED000A022101F0A0F895ED90
:10424C00000A10498DED010A02A801F010F99DED4C
:10425C00010A02A8FFF774FF02A801F0BDF80A4B8F
:10426C001C6007B0BDEC028B30BD00BF18E603200C
:10427C009F6A0D009E6A0D0010E603201CE60320C9
:10428C00A66A0D00A56A0D0014E60320F0B5002403
:10429C000D4D0E4E85B0274615F8013B01347BB110
:1042AC003146684601F0E3F807EE904A6846B8EEEE
:1042BC00E70AFFF745FF684601F08EF805F8017C28
:1042CC000C2CE9D105B0F0BD38E60320AD6A0D0029
:1042DC0008B580B201F04AFE003818BF012008BDB5
:1042EC002DE9F8430720FFF7F3FF0446A0BB01F0CC
:1042FC007FFE02225A2100F0AEFD01F079FE036828
:10430C00DFF860805B699847064601F071FE036830
:10431C005B699847F6B246EA0020114E85B24FF021
:10432C00010945FA04F313F0010317D001F0BCFCAA
:10433C00414600F005FF01F0B7FC0A220746214672
:10434C0000F02BFF384600F008FF86F8009001348F
:10435C000C2C06F10106E4D1BDE8F8833370F6E7C6
:10436C0038E60320B46A0D0008B5502000F09EFC1E
:10437C00FFF7B6FFFFF78AFFBDE80840FFF70ABF5B
:10438C0070B5064614460D4601F032FE314600F07B
:10439C0069FD01F02DFE036829469B68984701F0E2
:1043AC0027FE036821469B68984701F021FEBDE873
:1043BC00704000F05EBD10B5002204465E21FFF790
:1043CC00DFFF204601222B21FFF7DAFF20460122D6
:1043DC002C21FFF7D5FF204600222D21FFF7D0FF1F
:1043EC00204600222E21FFF7CBFF204601222F2151
:1043FC00FFF7C6FF204601223021FFF7C1FF204600
:10440C00FF223121FFF7BCFF204602223221FFF7A9
:10441C00B7FF204606224121FFF7B2FF20460A22B1
:10442C004221FFF7ADFF204606224321FFF7A8FFEC
:10443C0020460A224421FFF7A3FF204606224521ED
:10444C00FFF79EFF20460A224621FFF799FF2046E0
:10445C0006224721FFF794FF20460A224821FFF746
:10446C008FFF204606224921FFF78AFF20460A22A9
:10447C004A21FFF785FF204606224B21FFF780FFDC
:10448C0020460A224C21FFF77BFF204606224D21B5
:10449C00FFF776FF20460A224E21FFF771FF2046D8
:1044AC0006224F21FFF76CFF20460A225021FFF70E
:1044BC0067FF204606225121FFF762FF20460A22A1
:1044CC005221FFF75DFF204606225321FFF758FFCC
:1044DC0020460A225421FFF753FF2046062255217D
:1044EC00FFF74EFF20460A225621FFF749FF2046D0
:1044FC0006225721FFF744FF20460A225821FFF7D6
:10450C003FFF204604225D21FFF73AFF20460C2294
:10451C005E21FFF735FF20460C22BDE810405E21DE
:10452C00FFF72EBF08B50021072001F0F5FC012193
:10453C00072001F002FD01F05BFD00F05DFCBDE821
:10454C0008405A20FFF737BF10B501F0ADFB184CEF
:10455C004FF4165101F09CFB01F0A6FB00F0FDFDA1
:10456C0001F0A2FB214600F004FE01F09DFB114975
:10457C0000F0FFFD01F098FB214600F0FAFD02214E
:10458C00084601F0C9FCFFF7CDFFFFF7ABFD41F684
:10459C0041710022084801F035F8052000F086FB37
:1045AC0001F082FBBDE81040044900F0E2BD00BF01
:1045BC00BC6A0D00E06A0D00ACE50320F36A0D0047
:1045CC0073B5124D124C134E284601F00DFA2846C5
:1045DC00114D1249224601F033FD284600F07EFCB5
:1045EC002246314628460E4D01F02AFD0223009347
:1045FC00A822C021284600F0B5FC224631462846A8
:10460C0002B0BDE8704001F01BBD00BFACE503205B
:10461C00A8E50320AB400D00F8E50320AD400D00EC
:10462C0020E603200023C0E9133303608362436058
:10463C007047000070B504460D4608300D4900F077
:10464C0016FF04F12C060B4904F1180000F00FFFC3
:10465C000849304600F00BFF064904F13C0000F01D
:10466C0006FF2046FFF7DEFF2946304600F013FF19
:10467C00204670BD9D6A0D0010B50446006800F020
:10468C00FDFAA06A00F0FAFAE06C00F0F7FA04F117
:10469C003C0000F0A1FE04F12C0000F09DFE04F1A2
:1046AC00180000F099FE04F1080000F095FE204679
:1046BC0010BD38B5016D04460431C06C10EE105AB3
:1046CC0000F0E4FAE064E8B1226DC5F307618154AF
:1046DC00D4E913210A44C5F307415170D4E91321DD
:1046EC000A44C5F307219170D4E913210A4404F15B
:1046FC003C00D570236D043323656621BDE838403A
:10470C0000F0F2BE38BD00002DE9F04F8BB0D0F8B0
:10471C002C9000AF804648460D46C7E9023202F0A5
:10472C009DF906460330800801F0D6FD3F4B002270
:10473C0001F096FC02F0FAF8D8F83CA0C6EB800623
:10474C008400504602F08AF9013483460444013057
:10475C00800801F0C1FD354B002201F081FC02F014
:10476C00E5F8CBF1030303EB800BD8F850303B603A
:10477C005C441C44E21D22F00702ADEB020D00214B
:10478C002246684602F036F9484602F067F9494677
:10479C000246684602F020F9484602F05FF90DEB3C
:1047AC0006022C211154484602F058F97860504604
:1047BC0002F054F97968013102468819684451466F
:1047CC0002F00AF9484602F049F98146504602F0D7
:1047DC0045F9484401303B68D8F84C1030445844F3
:1047EC001A46684402F0F8F82B68FE68D3F8388053
:1047FC000F4B3B6104360FCE07F1140CACE80F00E5
:10480C0033688CF800303A8907F110012846C0470C
:10481C002B6822466946DB68284698472B68284651
:10482C001B6C98472C37BD46BDE8F08F0000E03F6D
:10483C006C6B0D0008B5024B1B685B6C019308BDDB
:10484C004802030008B5024B1B689B6C019308BD22
:10485C004802030008B5024B1B685B68019308BD56
:10486C001802030008B5024B1B685B69019308BD75
:10487C001802030008B5024B1B685B68019308BD66
:10488C002C02030008B5024B1B689B68019308BD02
:10489C002C02030008B5024B1B68DB68019308BDB2
:1048AC002C02030008B5024B1B681B69019308BD61
:1048BC002C02030008B5024B1B685B69019308BD11
:1048CC002C02030008B5024B1B681B6B019308BD3F
:1048DC002C02030008B5024B1B68DB68019308BD72
:1048EC002802030008B5024B1B689B69019308BDA5
:1048FC002802030008B5024B1B68DB69019308BD55
:10490C002802030008B5024B1B681B6A019308BD03
:10491C002802030008B5024B1B685B6A019308BDB3
:10492C002802030008B5024B1B689B6A019308BD63
:10493C002802030008B5024B1B68DB6A019308BD13
:10494C002802030008B5024B1B681B6B019308BDC2
:10495C002802030008B5024B1B685B6B019308BD72
:10496C002802030008B5024B1B681B6C019308BDA1
:10497C002802030008B5024B1B681B6D019308BD90
:10498C002802030008B5024B1B685B69019308BD44
:10499C006C02030008B5024B1B685B69019308BDF0
:1049AC006402030008B5024B1B681B6A019308BD27
:1049BC006402030008B5024B1B685B6A019308BDD7
:1049CC006402030008B5024B1B689B6A019308BD87
:1049DC006402030008B5024B1B689B68019308BD79
:1049EC006802030008B5024B1B68DB68019308BD25
:1049FC006802030008B5024B1B685B68019308BD95
:104A0C003802030008B5024B1B689B69019308BD73
:104A1C003802030008B5024B1B68DB69019308BD23
:104A2C003802030008B5024B1B68DB6A019308BD12
:104A3C003802030008B5024B1B685B6B019308BD81
:104A4C003802030008B5024B1B689B6B019308BD31
:104A5C003802030008B5024B1B68DB69019308BDE3
:104A6C003002030008B5024B1B681B6A019308BD9A
:104A7C003002030008B5024B1B681B68019308BD8C
:104A8C003C02030008B5024B1B68DB68019308BDB0
:104A9C003C02030008B5024B1B681B69019308BD5F
:104AAC003C02030008B5024B1B685B69019308BD0F
:104ABC003C02030008B5024B1B689B69019308BDBF
:104ACC003C02030008B5024B1B68DB69019308BD6F
:104ADC003C02030008B5024B1B681B6A019308BD1E
:104AEC003C02030008B5024B1B689B6A019308BD8E
:104AFC003C02030008B5024B1B681B68019308BD00
:104B0C004C02030008B5024B1B685B68019308BD9F
:104B1C004C02030008B5024B1B681B69019308BDCE
:104B2C004C02030008B5024B1B685B69019308BD7E
:104B3C004C02030008B5024B1B689B69019308BD2E
:104B4C004C02030008B5024B1B68DB69019308BDDE
:104B5C004C02030008B5024B1B681B6A019308BD8D
:104B6C004C02030008B5024B1B685B68019308BD3F
:104B7C002002030008B5024B1B685B69019308BD5A
:104B8C002002030008B5034B1B68D3F8883001934F
:104B9C0008BD00002002030008B5034B1B68D3F8C6
:104BAC009430019308BD00002002030008B5024BAD
:104BBC001B68DB6B019308BD4402030008B5024B74
:104BCC001B681B68019308BD4002030008B5024B2B
:104BDC001B685B68019308BD4002030008B5024BDB
:104BEC001B689B68019308BD4002030008B5024B8B
:104BFC001B68DB68019308BD4002030008B5024B3B
:104C0C001B681B69019308BD4002030008B5024BE9
:104C1C001B685B69019308BD4002030008B5024B99
:104C2C001B689B69019308BD4002030008B5024B49
:104C3C001B68DB69019308BD4002030008B5024BF9
:104C4C001B681B6A019308BD4002030008B5024BA8
:104C5C001B681B6B019308BD4002030008B5024B97
:104C6C001B685B6B019308BD4002030008B5024B47
:104C7C001B681B68019308BD1C02030008B5024B9E
:104C8C001B685B68019308BD1C02030008B5024B4E
:104C9C001B689B68019308BD1C02030008B5024BFE
:104CAC001B685B6C019308BD1C0203000021FFF71D
:104CBC0061BF10B50446006808B1FFF7C3FD20467C
:104CCC0010BD000010B5064C002320462360FFF7F2
:104CDC00B1FD2046034A0449BDE8104001F0B0B9CB
:104CEC0044E60320A8E50320BF4C0D0010B58368F3
:104CFC00044613B1032201469847204610BD0022FA
:104D0C0040681146FFF79ABF002240681146FFF732
:104D1C00A5BF40680022FFF799BF4068002281F0D0
:104D2C000101FFF783BF002340681A461946FFF7BD
:104D3C0075BF002340681A461946FFF767BF00226B
:104D4C0040681146FFF75ABF002240681146FFF732
:104D5C0045BF406800220221FFF748BF002340688E
:104D6C001A46FFF733BF0000024B03225A60024A77
:104D7C001A60704748E60320106B0D007047F8B5B9
:104D8C00064615460C468F18BC4206D0336814F8FC
:104D9C00011B9B6830469847F6E72846F8BD007C17
:104DAC000022FFF7AFBD007C0021FFF7B3BD007CF4
:104DBC000021FFF7B7BD007C0021FFF7BBBD007CD5
:104DCC000021FFF7BFBD10B51421044601F03DF9D9
:104DDC00204610BD10B54FF47A73044608460021E6
:104DEC00C4E90113034B236020741146FFF7BAFD8D
:104DFC00204610BD446B0D000023007C1A4619465A
:104E0C00FFF768BD7FB500221423CDE90122ADF870
:104E1C0004300B788DF808304B680393CB680493FF
:104E2C00007C0B7A059301A9FFF7A4FD07B05DF890
:104E3C0004FB1FB5003B8DF800104FF0640103918B
:104E4C0018BF0123694601928DF80830FFF7DAFF8D
:104E5C0005B05DF804FB0123FFF7EBBF007C0022DB
:104E6C00FFF740BDC9B2FFF7F9BF007C0022FFF786
:104E7C0041BD0121FFF7F9BFF0B5037D062B8DB0C5
:104E8C000E4600F104074FF0000412D000F10805A3
:104E9C0015F8011D0A22304600F07FF9AF42044498
:104EAC0019D0002CF4D02E21304600F04DF90444DA
:104EBC00EEE72F236A4639460A208DF80040FFF7AB
:104ECC0069FD684601F0CAFD33680246DB68694635
:104EDC0030469847044620460DB0F0BD10B5054B42
:104EEC000446112240F8043B002101F083FD2046CA
:104EFC0010BD00BF6C6B0D000346074A10B543F89C
:104F0C00042B01F1100251F8044B43F8044B91426D
:104F1C00F9D10A781A7010BD6C6B0D00037D042B4F
:104F2C0004D14068003818BF01207047062B07D108
:104F3C0043683BB983682BB9C3681BB90069F1E7B7
:104F4C00002070470120704710B59DF8084044EAD6
:104F5C00032343EA024242EA0161042341600375E0
:104F6C0010BD000037B5044D05609DF81850009534
:104F7C00FFF7EAFF03B030BD6C6B0D0013B5CB78B7
:104F8C0000938B784A780978FFF7DEFF02B010BDEA
:104F9C00014B024A1A60704750E60320786B0D00F3
:104FAC00002340681A46FFF711BE40680022022118
:104FBC00FFF71CBE002240681146FFF70FBE00220F
:104FCC0040681146FFF71ABE002340681A4619467E
:104FDC00FFF71CBE002340681A461946FFF71EBE99
:104FEC004068002281F00101FFF720BE40680022DA
:104FFC00FFF72CBE002240681146FFF72FBE00229F
:10500C0040681146FFF71ABE2DE9F043002495B015
:10501C0016460D460746FFF761FF214618220EA8DB
:10502C00009401F0E7FC4023CDE90C3421466B469B
:10503C000CAA3046FFF7D6FC0446002846D102469F
:10504C0001216868FFF7DAFD022180462246686874
:10505C00FFF7D4FD009E81462146002E36D0002954
:10506C0034D17368022B03D00A2B0BD0F669F4E70A
:10507C00B8F1000F04D0716938460431FFF77EFF98
:10508C004146F3E7B9F1000F01D14946EEE77469E7
:10509C00102201A801F0AEFC06238DF8143001ADEE
:1050AC0004F108031834186859682A4603C20833F7
:1050BC00A3421546F7D101A906A807ADFFF71CFFBF
:1050CC000FCD3C1D0FC42B682370DEE70098FFF753
:1050DC0081FC384615B0BDE8F0830000024B034A52
:1050EC001A6000225A60704754E60320846B0D004E
:1050FC00F8B506460D468F180024BD420CD0336817
:10510C0015F8011B9B6830469847031E01DB1C44B5
:10511C00F3E7002C08BF1C462046F8BD13B5044627
:10512C00084659B1019101F099FC23680199DB689B
:10513C000246204602B0BDE81040184702B010BD30
:10514C0008B5FFF7EBFF08BD03689B6818470A68B2
:10515C000B46126801461846104738B50D21054616
:10516C00FFF7F2FF0A2104462846FFF7EDFF204423
:10517C0038BD38B50546FFF7D1FF04462846FFF782
:10518C00ECFF204438BD38B50546FFF7E0FF044678
:10519C002846FFF7E2FF204438BD30B58BB0002322
:1051AC008DF82430012A98BF0A2209AC0D46B1FBB8
:1051BC00F2F101FB125303F0FF03092B94BF3033C0
:1051CC003733DBB2AA4204F8013DEFD92146FFF791
:1051DC00A5FF0BB030BD00002DE9F74F55EC104B7F
:1051EC0006460F4610EE102A10EE100A2B462946E2
:1051FC0001F086FB40B153493046FFF78FFF8246E2
:10520C00504603B0BDE8F08F25F000494E4B4FF0EF
:10521C00FF322046494601F073FB48B94A4B4FF028
:10522C00FF322046494601F04DFB08B94749E3E7F8
:10523C00474B4FF060422046294601F057FB08B11E
:10524C004449D9E7444B4FF060422046294601F0CF
:10525C002FFB0028F4D1002200232046294601F020
:10526C0027FBD0B12D213046FFF76EFF05F100432F
:10527C0082461D463949DFF8EC904FF0000B0020B8
:10528C004FF000085FFA8BF39F4208D942464B4619
:10529C0001F0C6F90BF1010BF4E78246EAE722466E
:1052AC002B4600F0DDFE0D46044601F067FB804600
:1052BC0001F012F802460B462046294600F0CEFEBD
:1052CC000A2204460D4630464146FFF766FF8244EB
:1052DC0027B123493046FFF721FF8244DFF8849041
:1052EC004FF00008013FFFB2FF2F89D042464B46DA
:1052FC002046294601F06AF804460D4601F016FBDB
:10530C00B0F1000B1ADA2D213046FFF71DFFCBF15F
:10531C00000103460A2230460193FFF73EFF019B32
:10532C0018448244584600F0E7FF02460B462046DC
:10533C00294600F093FE04460D46D3E75946002358
:10534C00E8E700BFB06B0D00FFFFEF7FB46B0D0003
:10535C00FFFFEF41B86B0D00FFFFEFC10000E03F16
:10536C00BC6B0D000000244038B5C9B20546FFF7F0
:10537C0033FF04462846FFF7F0FE204438BD38B50D
:10538C00044610EE100A0D4600F0C8FF41EC100B5D
:10539C0029462046BDE83840FFF7E6BF10B5044665
:1053AC00FFF7A4FC204610BD0348044A044900231F
:1053BC00836000F045BE00BF5CE60320A8E5032037
:1053CC00A9530D0010B5044608462170FFF742FBA7
:1053DC0000236360204610BD10B504460068FFF73B
:1053EC004DFC204610BD10B50446006808B1FFF70F
:1053FC0045FC0023C4E90133236010BD38B50446D5
:10540C000D4600680131FFF741FC10B1C4E90005FD
:10541C00012038BD10B50368044623B143688B42A4
:10542C0001D3012010BD2046FFF7E8FF0028F9D07A
:10543C00A368002BF5D122681370F2E737B50D463F
:10544C00114601920446FFF7E5FF019A28B9204660
:10545C00FFF7C9FF204603B030BDA2602946206883
:10546C0001F0BAFA2268A3680021D154F2E70023B4
:10547C0013B5C0E9003304468360037341B1084699
:10548C00019101F0EBFA019902462046FFF7D6FF95
:10549C00204602B010BD13B5044659B1084601911F
:1054AC0001F0DCFA019902462046FFF7C7FF2046BF
:1054BC0002B010BDFFF797FFF9E770B505460E4631
:1054CC0009B9002070BD6AB1846814442146FFF705
:1054DC00A1FF0028F5D02868AB683146184401F0CC
:1054EC00B5FAAC600120EDE707B500238DF8041088
:1054FC00012201A98DF80530FFF7DFFF03B05DF83D
:10550C0004FB10B50446006818B1FFF7B7FB002385
:10551C00236010BD10B50446FFF7F3FF204610BD05
:10552C0010B5094B094C022200201A60084B206070
:10553C00A080A071A360FFF715FB2046054A064921
:10554C00BDE8104000F07CBD78E603206CE603203B
:10555C000000FFFFA8E5032021550D00024B1A683F
:10556C00024B1A60704700BF40E503207CE6032025
:10557C0010B40468246BA4465DF8044B60470368C0
:10558C009B6C1847808E7047028FC08E101A704724
:10559C0007B503688DF80710DB6801220DF10701D0
:1055AC00984703B05DF804FB10B503681B6904460B
:1055BC00984728B1E38EE26B591CE186D05C10BD94
:1055CC004FF0FF30FBE710B503681B6904469847A2
:1055DC0018B1E38EE26BD05C10BD4FF0FF30FBE7EF
:1055EC00704710B403460846DC6BD98E1A8F0368DB
:1055FC00521ADB6821445DF8044B1847A0F11000E7
:10560C00FFF7EFBF70B503688CB05B6A04460E46BB
:10561C001546984701231C22002105A8029301F08E
:10562C00E9F940F61C233046ADF81430FFF7CAF9FF
:10563C001122ADF8160002210A20FFF703FA002808
:10564C00606125DB0422009202AB40F6FF71FFF78C
:10565C00D9F9E8B995B10390ADF8100003A9E8B2F7
:10566C00FFF790F9A0B906230093606903AB41F2F0
:10567C000B0240F6FF71FFF7C5F948B960691C22AF
:10568C0005A9FFF7B7F918B9656401200CB070BD16
:10569C00236820465B6A98470020F7E710B504465C
:1056AC004069002801DBFFF7B5F94FF0FF33636168
:1056BC000023E386238710BD70B50546C06BEE8EC4
:1056CC0068B12B6C9C1B944228BF14462246304474
:1056DC0001F082F9EB8E2344EB86204670BD044624
:1056EC00F1E7D0B503681B6904460F461646984788
:1056FC0090B1236820461B699847E38EE16B864284
:10570C00A8BF064619443246384601F065F9E38EC7
:10571C003344E3863046D0BD4FF0FF36FAE7000045
:10572C0070B50446054B44F8043B01F120050646D0
:10573C000FCD0FC42B682370304670BD6C6B0D0001
:10574C00F0B59646026889B0976A0A4A02921C1D07
:10575C008C4606460FCC03AD0FC523682B70BDF8E5
:10576C0038300093724602AB61463046B84709B0F8
:10577C00F0BD00BF6C6B0D00F0B5036889B09F6A7B
:10578C000C4B029300F1200604460FCE03AD0FC55F
:10579C0033682B70A38EE28EE16B0093204602AB34
:1057AC00B84723680546DB6920469847284609B068
:1057BC00F0BD00BF6C6B0D00F0B54378022B8DB0C3
:1057CC0005460C46174604D1011D2046FFF7D6FBB3
:1057DC0022E00A2B25D11122002101A801F00AF99F
:1057EC00AB6803B305F1080301AE05F1180C18689A
:1057FC005968324603C2083363451646F7D106236F
:10580C0001A906A807AE8DF81430FFF775FB0FCE73
:10581C0004340FC4336823701FB16888FFF7CAF8CB
:10582C0038800DB0F0BDEB68002BDBD14FF6FF706C
:10583C002E69FFF7B7F88642D4D105F11401C4E7FD
:10584C002DE9F04117468EB00022064601AB084602
:10585C0011460192FFF7C6F8041E20DB019B2BB307
:10586C005B691BB302A8FFF739FB019B0022586947
:10587C0002A9FFF7A1FF02A8FFF750FBB0B13368F4
:10588C0003ADD3F838800B4B08930FCD09AC0FC484
:10589C002B6823703A4608A93046C0470446019845
:1058AC00FFF798F820460EB0BDE8F0814FF0FF34BA
:1058BC00F5E700BF6C6B0D002DE9F047D0F81490A4
:1058CC00B9F1000F90B005460E4690461C463CDBE5
:1058DC0000293AD04FF01C0A09AF52460021384635
:1058EC0001F088F8CDF80CA0DCB100224FF47A70EE
:1058FC00B4FBF0F3CDE9043200FB134358431023FF
:10590C0007920690009341F206026B4440F6FF7139
:10591C004846FFF777F8044620B1204610B0BDE8A2
:10592C00F087082403ABCDE900736869234642462F
:10593C003146FFF777F8041EEFDB05F1340205F171
:10594C001C013846FFF738FFE7E74FF0FF34E4E778
:10595C0038B5054614462B7D062B084610D140F66B
:10596C001C231380FFF72EF808342B1D24F8060C8B
:10597C00143553F8042B44F8042BAB42F9D138BD41
:10598C00042BFCD14FF404731380FFF71BF86080D9
:10599C006868FFF707F86060F1E72DE9F0438BB01A
:1059AC0003AF4FF01C09984604460D4616460021DD
:1059BC004A46384601F01EF8BDF848103A464046B3
:1059CC00FFF7C6FF9DF80D3053B1CDE90079606942
:1059DC00002332462946FFF72DF80BB0BDE8F083C3
:1059EC004FF0FF30F9E7000038B500254FF47A731B
:1059FC00C0E901530B4B03F108026C3303614FF008
:105A0C00FF330446026043611C30FFF767FA4FF422
:105A1C000073C4E91035E5862587E56384F84850A2
:105A2C00204638BDDC6B0D0010B590F848300446AC
:105A3C0023B1C06B10B1012100F007FB0023E3631D
:105A4C0084F848302364E386238710BD70B5044680
:105A5C0016460D46FFF7E8FF0023E66323642EB1DC
:105A6C002564206C003818BF012070BD002DF8D0C3
:105A7C002846FEF708FB0123E06384F84830002831
:105A8C00EFD0EDE7F8B51746C26B05460C461AB9D0
:105A9C00016C09B1FFF7DAFF04340FCC05F12006D5
:105AAC000FC6236833700023286CAF86EB862B87D8
:105ABC00F8BD37B5C26B04460B462AB9016C19B157
:105ACC000193FFF7C3FF019BE16B0022E286228763
:105ADC0041B1226C32B12068056B2046A8470028E2
:105AEC00C8BF208723681B69204603B0BDE830403F
:105AFC00184770474174704708B5007CFEF7F2FFF9
:105B0C0020EAE07008BD08B5007CFEF7C3FF20EA70
:105B1C00E07008BD08B5007CFEF7CCFF40EAE070F1
:105B2C0008BD08B5007CFEF7BDFF40EAE07008BD7B
:105B3C00007CFEF7C7BF37B5457C04462DB1207CF1
:105B4C0003B0BDE83040FEF79DBF007C0191FEF72D
:105B5C00C9FF00280199F2DC284603B030BD10B50E
:105B6C001421044600F071FA204610BD10B54FF018
:105B7C00000C0446084611464FF47A72C4E901C27F
:105B8C00044A22600122207462741A46FEF772FFE6
:105B9C00204610BD546C0D0013B50E4C2178BFF38C
:105BAC005B8F11F0010112D120460191FEF76FFAC3
:105BBC00019960B1084A094B0948FFF7D7FF204605
:105BCC00FEF76AFA074A0849054800F039FA044812
:105BDC0002B010BD80E6032084E6032008E7032012
:105BEC008CE70320A8E50320FF5A0D004174704791
:105BFC00704708B50021007CFEF79CFF40EAE0707E
:105C0C0008BD08B50121007CFEF794FF40EAE07066
:105C1C0008BD08B5007CFEF785FF20EAE07008BDE2
:105C2C0008B5007CFEF776FF20EAE07008BD13B5DE
:105C3C000446007C0191FEF775FF0028019901DCF8
:105C4C00607C20B1207CFEF77DFF20EAE07002B082
:105C5C0010BD007CFEF77EBF10B51421044600F089
:105C6C00F4F9204610BD000010B54FF47A730446C9
:105C7C0008460021C4E90113044B2360012320745E
:105C8C0063741146FEF736FF204610BD846C0D0080
:105C9C00007C0022FEF736BF10B51422044600210A
:105CAC0000F0A8FE204610BD10B5104C88B003A81B
:105CBC00FFF7F2FF2178BFF35B8F11F0010111D1D7
:105CCC0020460191FEF7E3F9019958B103AA08485F
:105CDC00FFF7CAFF2046FEF7DFF9064A06490448DB
:105CEC0000F0AEF9024808B010BD00BFA0E70320D9
:105CFC00A4E70320A8E50320FD5B0D00002240680B
:105D0C001146FEF77BBF002240681146FEF796BF96
:105D1C00002240681146FEF7A1BF40680022FEF742
:105D2C0095BF4068002281F00101FEF77FBF002380
:105D3C0040681A461946FEF771BF002340681A46A0
:105D4C001946FEF763BF002240681146FEF746BFB6
:105D5C00406800220221FEF749BF002340681A4622
:105D6C00FEF734BF024B04225A60024A1A60704795
:105D7C00B8E70320B46C0D00014B1860704700BFEE
:105D8C0044E5032008B50B4B43B1FFF78DFF0368C7
:105D9C001B699847002801DDAFF30080064B43B127
:105DAC00FFF7FAFE03681B699847002801DDAFF383
:105DBC00008008BD000000000000000008B5FFF7DF
:105DCC00E1FFFEF74FFD014B186008BDD4E703203F
:105DDC000248034A0349121A00F0FEBD00F40320E6
:105DEC0004F40320106D0D0007B5002300931A4630
:105DFC006FF07701FEF7D0FE03B05DF804FB0000F6
:105E0C0007B543880A2B08D0502B0BD1094B1B68C4
:105E1C004BB103B05DF804EB1847FFF7E5FF03B097
:105E2C005DF804FB002300931A466FF07701FEF730
:105E3C00B3FEF4E7C4E7032038B5124C1248134DF7
:105E4C000021FEF72BFF2368AB42114B0CBF012244
:105E5C0000221A7002D0FFF7BBFF2560FEF7FAFC98
:105E6C00044600F0CFFD0B4B13B12046AFF300807E
:105E7C0000210848FEF79AFEBDE83840064800218C
:105E8C00FEF780BE00F40320855D0D001E1C279AD2
:105E9C00C0E70320000000000D5E0D00232813B5A1
:105EAC0002D9002002B010BDA0F10B03022B1AD8AE
:105EBC00174C2178BFF35B8F11F001010BD12046F9
:105ECC000191FEF7E4F8019928B11248FFF77AFA2C
:105EDC002046FEF7E1F80F4B1878FEF7C3FD0028BB
:105EEC00DFD10120DEE7012809D800F081F800217C
:105EFC00007CFEF72FFD80F00100C0B2D2E709381C
:105F0C000128EED8FFF748FE007CFEF7E3FDF2E730
:105F1C00C8E70320CCE70320232838B504460D46F8
:105F2C000AD8FF2908D0FFF7B9FF28B12946204627
:105F3C00BDE83840FEF7A6BC38BD38B504460D4662
:105F4C00FEF7A8FCFF2810D0062804D84D2323FA0E
:105F5C0000F0C30709D42046FFF7A0FF28B129465B
:105F6C002046BDE83840FEF79DBC38BD10B5044650
:105F7C00FEF790FC031FDBB2012B08D92046FFF77C
:105F8C008DFF20B12046BDE81040FEF793BC0020E9
:105F9C0010BD0D2810B504469CBF0E34A4B220468B
:105FAC00FFF77CFF50B103212046FEF763FC03286A
:105FBC0004D12046BDE81040FEF784BC002010BD83
:105FCC0038B50023202543801423044603808560C4
:105FDC0005610649284600F03AF8044960602846F5
:105FEC0000F035F8E060204638BD00BFE06C0D00D5
:105FFC0030B50F4D2978BFF35B8F11F0010487B0DA
:10600C0013D12846FEF743F878B101A8FFF7D8FF63
:10601C0001AA21460748FEF7DDFE2846FEF73CF8AC
:10602C00054A0649034800F00BF8024807B030BD9A
:10603C00D8E70320DCE70320A8E50320894D0D00F9
:10604C000B460146184600F0B9BCFEF71EB8FEF729
:10605C001AB8000081F0004102E000BF83F0004359
:10606C0030B54FEA41044FEA430594EA050F08BFE7
:10607C0090EA020F1FBF54EA000C55EA020C7FEAAB
:10608C00645C7FEA655C00F0E2804FEA5454D4EB28
:10609C005555B8BF6D420CDD2C4480EA020281EAF2
:1060AC00030382EA000083EA010180EA020281EA2A
:1060BC000303362D88BF30BD11F0004F4FEA01317C
:1060CC004FF4801C4CEA113102D0404261EB41018B
:1060DC0013F0004F4FEA03334CEA133302D0524211
:1060EC0063EB430394EA050F00F0A780A4F10104CD
:1060FC00D5F1200E0DDB02FA0EFC22FA05F2801807
:10610C0041F1000103FA0EF2801843FA05F35941EC
:10611C000EE0A5F120050EF1200E012A03FA0EFC6B
:10612C0028BF4CF0020C43FA05F3C01851EBE37195
:10613C0001F0004507D54FF0000EDCF1000C7EEBB2
:10614C0000006EEB0101B1F5801F1BD3B1F5001FF0
:10615C000CD349085FEA30004FEA3C0C04F101040F
:10616C004FEA445212F5800F80F09A80BCF1004F38
:10617C0008BF5FEA500C50F1000041EB045141EABA
:10618C00050130BD5FEA4C0C404141EB0101013C83
:10619C0028BFB1F5801FE9D291F0000F04BF014672
:1061AC000020B1FA81F308BF2033A3F10B03B3F144
:1061BC0020020CDA0C3208DD02F1140CC2F10C02D4
:1061CC0001FA0CF021FA02F10CE002F11402D8BF32
:1061DC00C2F1200C01FA02F120FA0CFCDCBF41EAFE
:1061EC000C019040E41AA2BF01EB0451294330BDCD
:1061FC006FEA04041F3C1CDA0C340EDC04F11404AA
:10620C00C4F1200220FA04F001FA02F340EA030080
:10621C0021FA04F345EA030130BDC4F10C04C4F1C6
:10622C00200220FA02F001FA04F340EA03002946A6
:10623C0030BD21FA04F0294630BD94F0000F83F4F0
:10624C00801306BF81F480110134013D4EE77FEAD3
:10625C00645C18BF7FEA655C29D094EA050F08BF1F
:10626C0090EA020F05D054EA000C04BF1946104600
:10627C0030BD91EA030F1EBF0021002030BD5FEA44
:10628C00545C05D14000494128BF41F0004130BD6C
:10629C0014F580043CBF01F5801130BD01F00045C0
:1062AC0045F0FE4141F470014FF0000030BD7FEA33
:1062BC00645C1ABF194610467FEA655C1CBF0B462E
:1062CC00024650EA013406BF52EA033591EA030F45
:1062DC0041F4002130BD00BF90F0000F04BF00213D
:1062EC00704730B54FF4806404F132044FF0000570
:1062FC004FF0000150E700BF90F0000F04BF0021E9
:10630C00704730B54FF4806404F1320410F000454E
:10631C0048BF40424FF000013EE700BF42004FEA49
:10632C00E2014FEA31014FEA02701FBF12F07F43C6
:10633C0093F07F4F81F06051704732F07F4208BF7D
:10634C00704793F07F4F04BF41F40021704730B584
:10635C004FF4607401F0004521F000411CE700BFD0
:10636C0050EA010208BF704730B54FF000050AE053
:10637C0050EA010208BF704730B511F0004502D554
:10638C00404261EB41014FF4806404F132045FEA56
:10639C00915C3FF4D8AE4FF003025FEADC0C18BFFF
:1063AC0003325FEADC0C18BF033202EBDC02C2F1F1
:1063BC00200300FA03FC20FA02F001FA03FE40EA83
:1063CC000E0021FA02F11444BDE600BF70B54FF087
:1063DC00FF0C4CF4E06C1CEA11541DBF1CEA135565
:1063EC0094EA0C0F95EA0C0F00F0DEF82C4481EACD
:1063FC00030621EA4C5123EA4C5350EA013518BFED
:10640C0052EA033541F4801143F4801338D0A0FBD9
:10641C0002CE4FF00005E1FB02E506F00042E0FB86
:10642C0003E54FF00006E1FB03569CF0000F18BF8C
:10643C004EF0010EA4F1FF04B6F5007F64F5407434
:10644C0004D25FEA4E0E6D4146EB060642EAC621C7
:10645C0041EA55514FEAC52040EA5E504FEACE2E34
:10646C00B4F1FD0C88BFBCF5E06F1ED8BEF1004F37
:10647C0008BF5FEA500E50F1000041EB045170BDB3
:10648C0006F0004646EA010140EA020081EA0301F7
:10649C00B4EB5C04C2BFD4EB0C0541EA045170BDF3
:1064AC0041F480114FF0000E013C00F3AB8014F16D
:1064BC00360FDEBF002001F0004170BDC4F10004B6
:1064CC00203C35DA0C341BDC04F11404C4F1200537
:1064DC0000FA05F320FA04F001FA05F240EA020092
:1064EC0001F0004221F0004110EBD37021FA04F6C8
:1064FC0042EB06015EEA430E08BF20EAD37070BD82
:10650C00C4F10C04C4F1200500FA04F320FA05F0E0
:10651C0001FA04F240EA020001F0004110EBD370E2
:10652C0041F100015EEA430E08BF20EAD37070BD52
:10653C00C4F1200500FA05F24EEA020E20FA04F32B
:10654C0001FA05F243EA020321FA04F001F00041DA
:10655C0021FA04F220EA020000EBD3705EEA430E4B
:10656C0008BF20EAD37070BD94F0000F0FD101F07A
:10657C000046400041EB010111F4801F08BF013CB3
:10658C00F7D041EA060195F0000F18BF704703F0F1
:10659C000046520043EB030313F4801F08BF013D78
:1065AC00F7D043EA0603704794EA0C0F0CEA135534
:1065BC0018BF95EA0C0F0CD050EA410618BF52EAEE
:1065CC004306D1D181EA030101F000414FF00000F4
:1065DC0070BD50EA410606BF1046194652EA430602
:1065EC0019D094EA0C0F02D150EA013613D195EA76
:1065FC000C0F05D152EA03361CBF104619460AD1BE
:10660C0081EA030101F0004141F0FE4141F47001C7
:10661C004FF0000070BD41F0FE4141F4780170BDB7
:10662C0070B54FF0FF0C4CF4E06C1CEA11541DBF1C
:10663C001CEA135594EA0C0F95EA0C0F00F0A7F81E
:10664C00A4EB050481EA030E52EA03354FEA01314B
:10665C0000F088804FEA03334FF0805545EA13135E
:10666C0043EA12634FEA022245EA111545EA106526
:10667C004FEA00260EF000419D4208BF964244F1BD
:10668C00FD0404F5407402D25B084FEA3202B61ADC
:10669C0065EB03055B084FEA32024FF480104FF4B0
:1066AC00002CB6EB020E75EB030E22BFB61A754624
:1066BC0040EA0C005B084FEA3202B6EB020E75EBB7
:1066CC00030E22BFB61A754640EA5C005B084FEA1F
:1066DC003202B6EB020E75EB030E22BFB61A7546EC
:1066EC0040EA9C005B084FEA3202B6EB020E75EBF7
:1066FC00030E22BFB61A754640EADC0055EA060EB8
:10670C0018D04FEA051545EA16754FEA06164FEAFA
:10671C00C30343EA52734FEAC2025FEA1C1CC0D1A6
:10672C0011F4801F0BD141EA00014FF000004FF033
:10673C00004CB6E711F4801F04BF01430020B4F1F4
:10674C00FD0C88BFBCF5E06F3FF6AFAEB5EB030CAC
:10675C0004BFB6EB020C5FEA500C50F1000041EBA9
:10676C00045170BD0EF0004E4EEA113114EB5C0476
:10677C00C2BFD4EB0C0541EA045170BD41F4801149
:10678C004FF0000E013C90E645EA060E8DE60CEA51
:10679C00135594EA0C0F08BF95EA0C0F3FF43BAF6E
:1067AC0094EA0C0F0AD150EA01347FF434AF95EA25
:1067BC000C0F7FF425AF104619462CE795EA0C0F09
:1067CC0006D152EA03353FF4FDAE1046194622E7D6
:1067DC0050EA410618BF52EA43067FF4C5AE50EAB0
:1067EC0041047FF40DAF52EA43057FF4EBAE12E7A0
:1067FC004FF0FF3C06E000BF4FF0010C02E000BF81
:10680C004FF0010C4DF804CD4FEA410C7FEA6C5C63
:10681C004FEA430C18BF7FEA6C5C1BD001B050EA06
:10682C00410C0CBF52EA430C91EA030F02BF90EAF1
:10683C00020F0020704710F1000F91EA030F58BFB0
:10684C00994208BF90422CBFD8176FEAE37040F012
:10685C00010070474FEA410C7FEA6C5C02D150EAB0
:10686C00013C07D14FEA430C7FEA6C5CD6D152EA6B
:10687C00033CD3D05DF8040B704700BF8446104630
:10688C0062468C461946634600E000BF01B5FFF72F
:10689C00B7FF002848BF10F1000F01BD4DF808EDFF
:1068AC00FFF7F4FF0CBF012000205DF808FB00BFD0
:1068BC004DF808EDFFF7EAFF34BF012000205DF82A
:1068CC0008FB00BF4DF808EDFFF7E0FF94BF012077
:1068DC0000205DF808FB00BF4DF808EDFFF7CEFF78
:1068EC0094BF012000205DF808FB00BF4DF808EDB7
:1068FC00FFF7C4FF34BF012000205DF808FB00BF88
:10690C004FEA410C7FEA6C5C02D150EA013C0AD19F
:10691C004FEA430C7FEA6C5C02D152EA033C02D191
:10692C004FF0000070474FF0010070474FEA4102F2
:10693C0012F5001215D211D56FF47873B3EB6252C5
:10694C0012D94FEAC12343F0004343EA505311F0EC
:10695C00004F23FA02F018BF404270474FF000007E
:10696C00704750EA013005D111F0004008BF6FF0BC
:10697C00004070474FF00000704700BF4A0011D232
:10698C0012F5001211D20DD56FF47873B3EB62527D
:10699C000ED44FEAC12343F0004343EA505323FA89
:1069AC0002F070474FF00000704750EA013002D1FE
:1069BC004FF0FF3070474FF00000704710B5054C9A
:1069CC0013462CB10A4601460220AFF3008010BDDD
:1069DC002046FCE7000000000A44914200F1FF331E
:1069EC0000D1704710B511F8014B03F8014F9142DB
:1069FC00F9D110BD02440346934200D1704703F80D
:106A0C00011BF9E738B50D4B1D68AB6B04467BB920
:106A1C001820FEF72BF90A4A0A4BA863C0E9002399
:106A2C00094B83600B23838101220023C0E90423DB
:106A3C00AB6B00221C615A6138BD00BF44E50320DA
:106A4C000E33CDAB34126DE6ECDE0500034611F8C7
:106A5C00012B03F8012B002AF9D17047034613F8D8
:106A6C00012B002AFBD1181A013870471D400D006C
:106A7C0059400D0081400D0085400D0000000000C4
:106A8C004152474F4E204950202844484350293A00
:106A9C0020002F6772617373002F6272616E6368DE
:106AAC00002F746F75636800707265737365640092
:106ABC002D2D2D2D2D2D2D2D2D2D2D2D2D2D2D2DFA
:106ACC002D2D2D2D2D2D2D2D2D2D2D2D2D2D2D2DEA
:106ADC002D2D2D004D697374616B656E20526561AF
:106AEC006C697469657300436F6D706C6574656473
:106AFC0020766F6964207365747570000000000067
:106B0C0000000000694D0D005F4D0D00554D0D004E
:106B1C004B4D0D003F4D0D00334D0D00274D0D001D
:106B2C001F4D0D00154D0D000B4D0D0015500D009A
:106B3C000000000000000000894D0D00D34D0D0039
:106B4C00AB4D0D008B4D0D00B34D0D00BB4D0D002D
:106B5C00C34D0D00CB4D0D000000000000000000E7
:106B6C00854E0D00AB400D00CD400D0061707000E6
:106B7C000000000000000000AD4F0D00B74F0D00ED
:106B8C00C14F0D00CB4F0D00D54F0D00E14F0D0047
:106B9C00ED4F0D00F94F0D0001500D000B500D0085
:106BAC0015500D006E616E00696E66006F766600A2
:106BBC002E0025592D256D2D25645425483A254D3B
:106BCC003A2553257A0061736374696D6500000082
:106BDC000000000000000000AD400D00DB400D0087
:106BEC009D550D00C5560D0095550D00B5550D0064
:106BFC00D3550D00ED550D0011560D00A9560D0085
:106C0C00A7590D004D570D00C5580D007D550D00B1
:106C1C00915A0D004D580D0085570D00BF5A0D00AF
:106C2C00EF560D008B550D002D570D0091550D0095
:106C3C00EF550D00F0FFFFFF0000000009560D009E
:106C4C000000000000000000FF5A0D006B5B0D00FF
:106C5C00435B0D00FD500D00135B0D002F5B0D0011
:106C6C00215B0D003D5B0D00015B0D00055B0D0014
:106C7C000000000000000000FD5B0D00655C0D00D5
:106C8C003B5C0D00FD500D002D5C0D00FF5B0D00FD
:106C9C000F5C0D005F5C0D001F5C0D00F95B0D00BF
:106CAC000000000000000000675D0D005D5D0D0040
:106CBC00535D0D00095D0D00475D0D003B5D0D0042
:106CCC002F5D0D00275D0D001D5D0D00135D0D008A
:106CDC0015500D0000000000CD450D00D14C0D00ED
:106CEC00754D0D009D4F0D00E9500D00B5530D0075
:106CFC002D550D0069550D00715D0D000000000053
:046D0C000000000083
:046D1000000000007F
:106D1400401F0000D26B0D0048E503200000000076
:106D2400000000000000000000000000000000005F
:106D3400000000000000000000000000000000004F
:106D4400000000000000000000000000000000003F
:106D5400000000000000000000000000000000002F
:106D6400000000000000000000000000000000001F
:0C6D740000000000000000000000000013
:106D8000FFFFFFFF00000102030405060708090AD0
:106D90000B0C0D0E0F101112131415161718191ACB
:086DA0001B1C1D1E1F20280012
:046DA80078563412D3
:04000003D000401CCD
:00000001FF
