:02000002D0002C
:1040000000400D0048610D00000006000C00050195
:084010000401DB0700000000C1
:04401800345E0D0005
:10401C0009480A49884208B505D0094A824202D0AB
:10402C00121A01F0B7FE0748074A0021121A01F0D4
:10403C00BFFE014808BD00BF58E50320B4600D0069
:10404C00C4E50320C4E50320F0E7032070B5074E58
:10405C00074C01F0CFFBA41BA4080025A54200D1FE
:10406C0070BD56F8043B98470135F7E788600D00A2
:10407C00AC600D0000F090B808B500F0BFF8BDE8DA
:10408C00084001F079BB00F0F1BB00F0F7BB007801
:10409C00B0FA80F0400970470123037070477047F5
:1040AC0010B5064B036064330446036100F0D4FF83
:1040BC00204601F097F9204610BD00BF885F0D0027
:1040CC0010B51821044601F06EFC204610BD10B549
:1040DC000446FFF7E5FF20464C2101F064FC204626
:1040EC0010BD000030B5144C0023606887B01A4630
:1040FC00194600F06BFB00226068114600F07EFB55
:10410C000028F8D0052000F0D1FB01F0ABFA0B49E8
:10411C0000F0D6FD01F0A6FA0022114605466068B3
:10412C0000F04CFB811C684600F0A6FC6946284652
:10413C0000F0E9FD07B030BDB8E70320485E0D0084
:10414C0030B59FB00F498DED010A09A800F0AAF80F
:10415C000D4D9DED010A09A800F0E3F80B4B0393FC
:10416C000FCD04AC0FC42B682370094B09491B6895
:10417C0003AA09A800F000F909A800F0B5F81FB0CF
:10418C0030BD00BF5A5E0D0030E60320205F0D00ED
:10419C0058E50320C8E5032010B501F063FA144C70
:1041AC004FF4165101F052FA01F05CFA00F095FD53
:1041BC0001F058FA214600F09CFD01F053FA0D492C
:1041CC0000F097FD01F04EFA214600F092FD02211D
:1041DC00084601F07FFBFFF785FF052000F066FB2A
:1041EC0001F040FABDE81040034900F082BD00BF69
:1041FC00615E0D00855E0D00985E0D0008B5022015
:10420C0001F079FB60B901F02DFA084900F071FD5D
:10421C00B7EE000AFFF794FF4FF47A7000F046FBFC
:10422C00BDE80840B7EE000AFFF78ABFAD5E0D008F
:10423C0073B5124D124C134E284601F0B3F82846B4
:10424C00114D1249224601F0A9FB284600F006FC4C
:10425C002246314628460E4D01F0A0FB092300935F
:10426C00A8220123C021284600F03CFC22463146FE
:10427C00284602B0BDE8704001F090BBC8E50320B1
:10428C00C4E50320AB400D0014E60320AD400D0047
:10429C002CE603200023C0E91333036083624360E0
:1042AC007047000070B504460D4608300D4900F00B
:1042BC00BCFD04F12C060B4904F1180000F0B5FD0F
:1042CC000849304600F0B1FD064904F13C0000F00D
:1042DC00ACFD2046FFF7DEFF2946304600F0B9FD65
:1042EC00204670BD595E0D0010B50446006800F004
:1042FC00C5FAA06A00F0C2FAE06C00F0BFFA04F153
:10430C003C0000F047FD04F12C0000F043FD04F1EB
:10431C00180000F03FFD04F1080000F03BFD2046C2
:10432C0010BD38B5016D04460431C06C10EE105A46
:10433C0000F0ACFAE064E8B1226DC5F3076181547A
:10434C00D4E913210A44C5F307415170D4E9132170
:10435C000A44C5F307219170D4E913210A4404F1EE
:10436C003C00D570236D043323656621BDE83840CD
:10437C0000F098BD38BD00002DE9F04F8BB0D0F89F
:10438C002C9000AF804648460D46C7E9023201F03A
:10439C0043FD06460330800801F04CFC3F4B0022E5
:1043AC0001F00CFB01F0C0FCD8F83CA0C6EB800679
:1043BC008400504601F030FD013483460444013042
:1043CC00800801F037FC354B002201F0F7FA01F0C0
:1043DC00ABFCCBF1030303EB800BD8F850303B6004
:1043EC005C441C44E21D22F00702ADEB020D0021DF
:1043FC002246684601F0DCFC484601F00DFD4946BA
:10440C000246684601F0C6FC484601F005FD0DEB7E
:10441C0006022C211154484601F0FEFC78605046EF
:10442C0001F0FAFC7968013102468819684451465A
:10443C0001F0B0FC484601F0EFFC8146504601F01B
:10444C00EBFC484401303B68D8F84C1030445844DD
:10445C001A46684401F09EFC2B68FE68D3F838803D
:10446C000F4B3B6104360FCE07F1140CACE80F0078
:10447C0033688CF800303A8907F110012846C047A0
:10448C002B6822466946DB68284698472B682846E5
:10449C001B6C98472C37BD46BDE8F08F0000E03F01
:1044AC00205F0D0008B5024B1B685B6C019308BDC7
:1044BC004802030008B5024B1B689B6C019308BDB6
:1044CC004802030008B5024B1B685B68019308BDEA
:1044DC001802030008B5024B1B685B69019308BD09
:1044EC001802030008B5024B1B689B68019308BDBA
:1044FC002C02030008B5024B1B68DB68019308BD56
:10450C002C02030008B5024B1B685B69019308BDC4
:10451C002C02030008B5024B1B681B6A019308BDF3
:10452C002802030008B5024B1B685B6A019308BDA7
:10453C002802030008B5024B1B689B6A019308BD57
:10454C002802030008B5024B1B68DB6A019308BD07
:10455C002802030008B5024B1B681B6B019308BDB6
:10456C002802030008B5024B1B685B6B019308BD66
:10457C002802030008B5024B1B681B6C019308BD95
:10458C002802030008B5024B1B685B69019308BD48
:10459C006C02030008B5024B1B685B69019308BDF4
:1045AC006402030008B5024B1B681B6A019308BD2B
:1045BC006402030008B5024B1B685B6A019308BDDB
:1045CC006402030008B5024B1B689B6A019308BD8B
:1045DC006402030008B5024B1B689B68019308BD7D
:1045EC006802030008B5024B1B68DB68019308BD29
:1045FC006802030008B5024B1B685B68019308BD99
:10460C003802030008B5024B1B689B69019308BD77
:10461C003802030008B5024B1B68DB69019308BD27
:10462C003802030008B5024B1B68DB6A019308BD16
:10463C003802030008B5024B1B685B6B019308BD85
:10464C003802030008B5024B1B689B6B019308BD35
:10465C003802030008B5024B1B68DB69019308BDE7
:10466C003002030008B5024B1B681B6A019308BD9E
:10467C003002030008B5024B1B681B68019308BD90
:10468C003C02030008B5024B1B68DB68019308BDB4
:10469C003C02030008B5024B1B681B69019308BD63
:1046AC003C02030008B5024B1B685B69019308BD13
:1046BC003C02030008B5024B1B689B69019308BDC3
:1046CC003C02030008B5024B1B68DB69019308BD73
:1046DC003C02030008B5024B1B681B6A019308BD22
:1046EC003C02030008B5024B1B689B6A019308BD92
:1046FC003C02030008B5024B1B681B68019308BD04
:10470C004C02030008B5024B1B685B68019308BDA3
:10471C004C02030008B5024B1B681B69019308BDD2
:10472C004C02030008B5024B1B685B69019308BD82
:10473C004C02030008B5024B1B689B69019308BD32
:10474C004C02030008B5024B1B68DB69019308BDE2
:10475C004C02030008B5024B1B681B6A019308BD91
:10476C004C02030008B5024B1B685B68019308BD43
:10477C002002030008B5024B1B685B69019308BD5E
:10478C002002030008B5034B1B68D3F88830019353
:10479C0008BD00002002030008B5034B1B68D3F8CA
:1047AC009430019308BD00002002030008B5024BB1
:1047BC001B68DB6B019308BD4402030008B5024B78
:1047CC001B681B68019308BD4002030008B5024B2F
:1047DC001B685B68019308BD4002030008B5024BDF
:1047EC001B689B68019308BD4002030008B5024B8F
:1047FC001B68DB68019308BD4002030008B5024B3F
:10480C001B681B69019308BD4002030008B5024BED
:10481C001B685B69019308BD4002030008B5024B9D
:10482C001B689B69019308BD4002030008B5024B4D
:10483C001B68DB69019308BD4002030008B5024BFD
:10484C001B681B6A019308BD4002030008B5024BAC
:10485C001B681B6B019308BD4002030008B5024B9B
:10486C001B685B6B019308BD4002030008B5024B4B
:10487C001B681B68019308BD1C02030008B5024BA2
:10488C001B685B68019308BD1C02030008B5024B52
:10489C001B689B68019308BD1C02030008B5024B02
:1048AC001B685B6C019308BD1C0203000021FFF721
:1048BC0061BF10B50446006808B1FFF7FBFD204648
:1048CC0010BD000010B5064C002320462360FFF7F6
:1048DC00E9FD2046034A0449BDE8104001F05EB8EA
:1048EC0044E60320C4E50320BF480D0010B58368DF
:1048FC00044613B1032201469847204610BD0022FE
:10490C0040681146FFF79ABF002240681146FFF736
:10491C00A5BF40680022FFF799BF4068002281F0D4
:10492C000101FFF783BF002340681A461946FFF7C1
:10493C0075BF002340681A461946FFF767BF00226F
:10494C0040681146FFF75ABF002240681146FFF736
:10495C0045BF406800220221FFF748BF0023406892
:10496C001A46FFF733BF0000024B03225A60024A7B
:10497C001A60704748E60320C45E0D007047F8B516
:10498C00064615460C468F18BC4206D0336814F800
:10499C00011B9B6830469847F6E72846F8BD007C1B
:1049AC000022FFF7B7BD007C0021FFF7BBBD007CE8
:1049BC000021FFF7BFBD007C0021FFF7C3BD007CC9
:1049CC000021FFF7C7BD10B51421044600F0EBFF22
:1049DC00204610BD10B54FF47A73044608460021EA
:1049EC00C4E90113034B236020741146FFF7C2FD89
:1049FC00204610BDF85E0D00F0B5037D062B8DB082
:104A0C000E4600F104074FF0000412D000F1080527
:104A1C0015F8011D0A22304600F07FF9AF4204441C
:104A2C0019D0002CF4D02E21304600F04DF904445E
:104A3C00EEE72F236A4639460A208DF80040FFF72F
:104A4C00A9FD684601F0E8F933680246DB6869465F
:104A5C0030469847044620460DB0F0BD10B5054BC6
:104A6C000446112240F8043B002101F0A1F9204634
:104A7C0010BD00BF205F0D000346074A10B543F878
:104A8C00042B01F1100251F8044B43F8044B9142F2
:104A9C00F9D10A781A7010BD205F0D00037D042B2C
:104AAC0004D14068003818BF01207047062B07D18D
:104ABC0043683BB983682BB9C3681BB90069F1E73C
:104ACC00002070470120704710B59DF8084044EA5B
:104ADC00032343EA024242EA016104234160037565
:104AEC0010BD000037B5044D05609DF818500095B9
:104AFC00FFF7EAFF03B030BD205F0D0013B5CB7894
:104B0C0000938B784A780978FFF7DEFF02B010BD6E
:104B1C00014B024A1A60704750E603202C5F0D00CF
:104B2C00002340681A46FFF751BE4068002202215C
:104B3C00FFF75CBE002240681146FFF74FBE002213
:104B4C0040681146FFF75ABE002340681A461946C2
:104B5C00FFF75CBE002340681A461946FFF75EBE9D
:104B6C004068002281F00101FFF760BE406800221E
:104B7C00FFF76CBE002240681146FFF76FBE0022A3
:104B8C0040681146FFF75ABE2DE9F043002495B05A
:104B9C0016460D460746FFF761FF214618220EA860
:104BAC00009401F005F94023CDE90C3421466B4605
:104BBC000CAA3046FFF716FD0446002846D10246E3
:104BCC0001216868FFF71AFE0221804622466868B8
:104BDC00FFF714FE009E81462146002E36D0002998
:104BEC0034D17368022B03D00A2B0BD0F669F4E78F
:104BFC00B8F1000F04D0716938460431FFF77EFF1D
:104C0C004146F3E7B9F1000F01D14946EEE774696B
:104C1C00102201A801F0CCF806238DF8143001AD58
:104C2C0004F108031834186859682A4603C208337B
:104C3C00A3421546F7D101A906A807ADFFF71CFF43
:104C4C000FCD3C1D0FC42B682370DEE70098FFF7D7
:104C5C00C1FC384615B0BDE8F0830000024B034A96
:104C6C001A6000225A60704754E60320385F0D002A
:104C7C00F8B506460D468F180024BD420CD033689B
:104C8C0015F8011B9B6830469847031E01DB1C443A
:104C9C00F3E7002C08BF1C462046F8BD13B50446AC
:104CAC00084659B1019101F0B7F823680199DB6806
:104CBC000246204602B0BDE81040184702B010BDB5
:104CCC0008B5FFF7EBFF08BD03689B6818470A6837
:104CDC000B46126801461846104738B50D2105469B
:104CEC00FFF7F2FF0A2104462846FFF7EDFF2044A8
:104CFC0038BD38B50546FFF7D1FF04462846FFF707
:104D0C00ECFF204438BD38B50546FFF7E0FF0446FC
:104D1C002846FFF7E2FF204438BD30B58BB00023A6
:104D2C008DF82430012A98BF0A2209AC0D46B1FB3C
:104D3C00F2F101FB125303F0FF03092B94BF303344
:104D4C003733DBB2AA4204F8013DEFD92146FFF715
:104D5C00A5FF0BB030BD10B50446FFF7C7FD2046CC
:104D6C0010BD00000348044A04490023836000F08E
:104D7C0015BE00BF5CE60320C4E50320634D0D00A7
:104D8C0010B5044608462170FFF764FC00236360ED
:104D9C00204610BD10B504460068FFF76FFD204695
:104DAC0010BD10B50446006808B1FFF767FD00237D
:104DBC00C4E90133236010BD38B504460D460068C4
:104DCC000131FFF763FD10B1C4E90005012038BDC6
:104DDC0010B50368044623B143688B4201D301200C
:104DEC0010BD2046FFF7E8FF0028F9D0A368002B80
:104DFC00F5D122681370F2E737B50D4611460192D2
:104E0C000446FFF7E5FF019A28B92046FFF7C9FFD2
:104E1C00204603B030BDA2602946206800F0BAFFDE
:104E2C002268A3680021D154F2E7002313B5C0E92E
:104E3C00003304468360037341B10846019100F0CE
:104E4C00EBFF019902462046FFF7D6FF204602B041
:104E5C0010BD13B5044659B10846019100F0DCFFB2
:104E6C00019902462046FFF7C7FF204602B010BD4D
:104E7C00FFF797FFF9E770B505460E4609B9002014
:104E8C0070BD6AB1846814442146FFF7A1FF002865
:104E9C00F5D02868AB683146184400F0B5FFAC601B
:104EAC000120EDE707B500238DF80410012201A9BC
:104EBC008DF80530FFF7DFFF03B05DF804FB10B58C
:104ECC000446006818B1FFF7D9FC0023236010BD1D
:104EDC0010B50446FFF7F3FF204610BD10B5094B83
:104EEC00094C022200201A60084B2060A080A0719F
:104EFC00A360FFF737FC2046054A0649BDE8104081
:104F0C0000F04CBD78E603206CE603200000FFFFA8
:104F1C00C4E50320DD4E0D00024B1A68024B1A60EB
:104F2C00704700BF5CE503207CE6032010B40468E6
:104F3C00246BA4465DF8044B604703689B6C1847D0
:104F4C00808E7047028FC08E101A704707B50368A9
:104F5C008DF80710DB6801220DF10701984703B0AB
:104F6C005DF804FB10B503681B690446984728B12B
:104F7C00E38EE26B591CE186D05C10BD4FF0FF3024
:104F8C00FBE710B503681B690446984718B1E38E1C
:104F9C00E26BD05C10BD4FF0FF30FBE7704710B4F4
:104FAC0003460846DC6BD98E1A8F0368521ADB68ED
:104FBC0021445DF8044B1847A0F11000FFF7EFBF38
:104FCC0070B503688CB05B6A04460E46154698476C
:104FDC0001231C22002105A8029300F0E9FE40F6F3
:104FEC001C233046ADF81430FFF7ECFA1122ADF863
:104FFC00160002210A20FFF725FB0028606125DB43
:10500C000422009202AB40F6FF71FFF7FBFAE8B9FD
:10501C0095B10390ADF8100003A9E8B2FFF7B2FA0E
:10502C00A0B906230093606903AB41F20B0240F672
:10503C00FF71FFF7E7FA48B960691C2205A9FFF771
:10504C00D9FA18B9656401200CB070BD23682046EC
:10505C005B6A98470020F7E710B5044640690028C2
:10506C0001DBFFF7D7FA4FF0FF3363610023E386D0
:10507C00238710BD70B50546C06BEE8E68B12B6CE6
:10508C009C1B944228BF14462246304400F082FEFA
:10509C00EB8E2344EB86204670BD0446F1E7D0B579
:1050AC0003681B6904460F461646984790B123685F
:1050BC0020461B699847E38EE16B8642A8BF0646E3
:1050CC0019443246384600F065FEE38E3344E386DD
:1050DC003046D0BD4FF0FF36FAE7000070B50446FD
:1050EC00054B44F8043B01F1200506460FCD0FC4D7
:1050FC002B682370304670BD205F0D00F0B59646CE
:10510C00026889B0976A0A4A02921C1D8C460646B0
:10511C000FCC03AD0FC523682B70BDF8383000934E
:10512C00724602AB61463046B84709B0F0BD00BFCD
:10513C00205F0D00F0B5036889B09F6A0C4B029399
:10514C0000F1200604460FCE03AD0FC533682B705B
:10515C00A38EE28EE16B0093204602ABB847236826
:10516C000546DB6920469847284609B0F0BD00BFCC
:10517C00205F0D00F0B54378022B8DB005460C4630
:10518C00174604D1011D2046FFF7B8FC22E00A2B7C
:10519C0025D11122002101A800F00AFEAB6803B34F
:1051AC0005F1080301AE05F1180C18685968324670
:1051BC0003C2083363451646F7D1062301A906A896
:1051CC0007AE8DF81430FFF757FC0FCE04340FC424
:1051DC00336823701FB16888FFF7ECF938800DB085
:1051EC00F0BDEB68002BDBD14FF6FF702E69FFF79B
:1051FC00D9F98642D4D105F11401C4E72DE9F04167
:10520C0017468EB00022064601AB084611460192A5
:10521C00FFF7E8F9041E20DB019B2BB35B691BB382
:10522C0002A8FFF71BFC019B0022586902A9FFF79B
:10523C00A1FF02A8FFF732FCB0B1336803ADD3F87D
:10524C0038800B4B08930FCD09AC0FC42B6823701F
:10525C003A4608A93046C04704460198FFF7BAF908
:10526C0020460EB0BDE8F0814FF0FF34F5E700BFEB
:10527C00205F0D002DE9F047D0F81490B9F1000F24
:10528C0090B005460E4690461C463CDB00293AD0B1
:10529C004FF01C0A09AF52460021384600F088FD39
:1052AC00CDF80CA0DCB100224FF47A70B4FBF0F313
:1052BC00CDE9043200FB13435843102307920690A8
:1052CC00009341F206026B4440F6FF714846FFF72B
:1052DC0099F9044620B1204610B0BDE8F0870824A7
:1052EC0003ABCDE900736869234642463146FFF7AC
:1052FC0099F9041EEFDB05F1340205F11C01384667
:10530C00FFF738FFE7E74FF0FF34E4E738B5054621
:10531C0014462B7D062B084610D140F61C23138017
:10532C00FFF750F908342B1D24F8060C143553F8EC
:10533C00042B44F8042BAB42F9D138BD042BFCD11F
:10534C004FF404731380FFF73DF960806868FFF732
:10535C0029F96060F1E72DE9F0438BB003AF4FF012
:10536C001C09984604460D46164600214A46384606
:10537C0000F01EFDBDF848103A464046FFF7C6FF48
:10538C009DF80D3053B1CDE90079606900233246A8
:10539C002946FFF74FF90BB0BDE8F0834FF0FF3013
:1053AC00F9E7000038B500254FF47A73C0E90153D2
:1053BC000B4B03F108026C3303614FF0FF330446CF
:1053CC00026043611C30FFF749FB4FF40073C4E9E2
:1053DC001035E5862587E56384F84850204638BDAE
:1053EC00805F0D0010B590F84830044623B1C06BB7
:1053FC0010B1012100F0D7FA0023E36384F84830A0
:10540C002364E386238710BD70B5044616460D460B
:10541C00FFF7E8FF0023E66323642EB12564206CBC
:10542C00003818BF012070BD002DF8D02846FEF7BB
:10543C002AFE0123E06384F848300028EFD0EDE722
:10544C00F8B51746C26B05460C461AB9016C09B182
:10545C00FFF7DAFF04340FCC05F120060FC62368E2
:10546C0033700023286CAF86EB862B87F8BD37B5DD
:10547C00C26B04460B462AB9016C19B10193FFF7B4
:10548C00C3FF019BE16B0022E286228741B1226CB3
:10549C0032B12068056B2046A8470028C8BF20877A
:1054AC0023681B69204603B0BDE83040184770479D
:1054BC004174704708B5007CFFF714F920EAE070DE
:1054CC0008BD08B5007CFFF7E5F820EAE07008BDE0
:1054DC0008B5007CFFF7EEF840EAE07008BD08B5AF
:1054EC00007CFFF7DFF840EAE07008BD007CFFF7B6
:1054FC00E9B837B5457C04462DB1207C03B0BDE836
:10550C003040FFF7BFB8007C0191FFF7EBF80028A3
:10551C000199F2DC284603B030BD10B514210446C5
:10552C0000F041FA204610BD10B54FF0000C0446B7
:10553C00084611464FF47A72C4E901C2044A22604B
:10554C000122207462741A46FFF794F8204610BDAD
:10555C00F85F0D0013B50E4C2178BFF35B8F11F083
:10556C00010112D120460191FEF791FD019960B124
:10557C00084A094B0948FFF7D7FF2046FEF78CFD78
:10558C00074A0849054800F009FA044802B010BD62
:10559C0080E6032084E6032008E703208CE7032041
:1055AC00C4E50320BB540D0041747047704708B527
:1055BC000021007CFFF7BEF840EAE07008BD08B59A
:1055CC000121007CFFF7B6F840EAE07008BD08B591
:1055DC00007CFFF7A7F820EAE07008BD08B5007C56
:1055EC00FFF798F820EAE07008BD13B50446007C7C
:1055FC000191FFF797F80028019901DC607C20B13C
:10560C00207CFFF79FF820EAE07002B010BD007C10
:10561C00FFF7A0B810B51421044600F0C4F92046D9
:10562C0010BD000010B54FF47A73044608460021F3
:10563C00C4E90113044B23600123207463741146E5
:10564C00FFF758F8204610BD28600D00007C0022A2
:10565C00FFF758B810B514220446002100F0A8FB3F
:10566C00204610BD10B5104C88B003A8FFF7F2FF10
:10567C002178BFF35B8F11F0010111D1204601910C
:10568C00FEF705FD019958B103AA0848FFF7CAFFB8
:10569C002046FEF701FD064A0649044800F07EF953
:1056AC00024808B010BD00BFA0E70320A4E7032008
:1056BC00C4E50320B9550D00002240681146FFF7E0
:1056CC009DB8002240681146FFF7B8B80022406828
:1056DC001146FFF7C3B840680022FFF7B7B840681F
:1056EC00002281F00101FFF7A1B8002340681A469F
:1056FC001946FFF793B8002340681A461946FFF77E
:10570C0085B8002240681146FFF768B8406800224F
:10571C000221FFF76BB8002340681A46FFF756B812
:10572C00024B04225A60024A1A607047B8E7032001
:10573C0058600D00014B1860704700BF60E50320F6
:10574C0008B50B4B43B1FFF78DFF03681B699847F6
:10575C00002801DDAFF30080064B43B1FFF7FAFEE2
:10576C0003681B699847002801DDAFF3008008BD72
:10577C00000000000000000008B5FFF7E1FFFEF795
:10578C00A9FE014B186008BDD4E703200248034A68
:10579C000349121A00F0FEBA00F4032004F40320AB
:1057AC00B0600D0007B5002300931A466FF0770127
:1057BC00FEF7F2FF03B05DF804FB000007B5438869
:1057CC000A2B08D0502B0BD1094B1B684BB103B0E3
:1057DC005DF804EB1847FFF7E5FF03B05DF804FB39
:1057EC00002300931A466FF07701FEF7D5FFF4E71C
:1057FC00C4E7032038B5124C1248134D0021FFF7B3
:10580C004DF82368AB42114B0CBF012200221A70D9
:10581C0002D0FFF7BBFF2560FEF754FE044600F0F4
:10582C00CFFA0B4B13B12046AFF300800021084890
:10583C00FEF7BCFFBDE8384006480021FEF7A2BFCA
:10584C0000F4032041570D001E1C279AC0E70320CB
:10585C0000000000C9570D00232813B502D9002001
:10586C0002B010BDA0F10B03022B1AD8174C2178F3
:10587C00BFF35B8F11F001010BD120460191FEF7B4
:10588C0006FC019928B11248FFF77AFA2046FEF778
:10589C0003FC0F4B1878FEF7E5FE0028DFD1012042
:1058AC00DEE7012809D800F051F80021007CFEF752
:1058BC0059FE80F00100C0B2D2E709380128EED8B9
:1058CC00FFF748FE007CFEF705FFF2E7C8E7032070
:1058DC00CCE70320232838B504460D460AD8FF2907
:1058EC0008D0FFF7B9FF28B129462046BDE838405B
:1058FC00FEF7F8BD38BD10B50446FEF7FBFD031FDF
:10590C00DBB2012B08D92046FFF7A6FF20B12046B9
:10591C00BDE81040FEF7F6BD002010BD38B50023E1
:10592C0020254380142304460380856005610649C5
:10593C00284600F03AF804496060284600F035F833
:10594C00E060204638BD00BF84600D0030B50F4DBF
:10595C002978BFF35B8F11F0010487B013D128466F
:10596C00FEF795FB78B101A8FFF7D8FF01AA2146F5
:10597C000748FFF72FF82846FEF78EFB054A064925
:10598C00034800F00BF8024807B030BDD8E70320FD
:10599C00DCE70320C4E5032089490D000B460146D2
:1059AC00184600F0E9B9FEF770BBFEF76CBB0000BF
:1059BC0081F0004102E000BF83F0004330B54FEAB4
:1059CC0041044FEA430594EA050F08BF90EA020F21
:1059DC001FBF54EA000C55EA020C7FEA645C7FEAB4
:1059EC00655C00F0E2804FEA5454D4EB5555B8BFD7
:1059FC006D420CDD2C4480EA020281EA030382EA48
:105A0C00000083EA010180EA020281EA0303362DD9
:105A1C0088BF30BD11F0004F4FEA01314FF4801CAC
:105A2C004CEA113102D0404261EB410113F0004FBE
:105A3C004FEA03334CEA133302D0524263EB430375
:105A4C0094EA050F00F0A780A4F10104D5F1200E13
:105A5C000DDB02FA0EFC22FA05F2801841F100016E
:105A6C0003FA0EF2801843FA05F359410EE0A5F142
:105A7C0020050EF1200E012A03FA0EFC28BF4CF073
:105A8C00020C43FA05F3C01851EBE37101F0004529
:105A9C0007D54FF0000EDCF1000C7EEB00006EEB36
:105AAC000101B1F5801F1BD3B1F5001F0CD34908C0
:105ABC005FEA30004FEA3C0C04F101044FEA445217
:105ACC0012F5800F80F09A80BCF1004F08BF5FEA9E
:105ADC00500C50F1000041EB045141EA050130BD7E
:105AEC005FEA4C0C404141EB0101013C28BFB1F590
:105AFC00801FE9D291F0000F04BF01460020B1FADB
:105B0C0081F308BF2033A3F10B03B3F120020CDAAD
:105B1C000C3208DD02F1140CC2F10C0201FA0CF08B
:105B2C0021FA02F10CE002F11402D8BFC2F1200CF0
:105B3C0001FA02F120FA0CFCDCBF41EA0C019040A6
:105B4C00E41AA2BF01EB0451294330BD6FEA0404EF
:105B5C001F3C1CDA0C340EDC04F11404C4F12002DA
:105B6C0020FA04F001FA02F340EA030021FA04F3EC
:105B7C0045EA030130BDC4F10C04C4F1200220FA43
:105B8C0002F001FA04F340EA0300294630BD21FA81
:105B9C0004F0294630BD94F0000F83F4801306BF47
:105BAC0081F480110134013D4EE77FEA645C18BF3B
:105BBC007FEA655C29D094EA050F08BF90EA020FD2
:105BCC0005D054EA000C04BF1946104630BD91EACA
:105BDC00030F1EBF0021002030BD5FEA545C05D1CD
:105BEC004000494128BF41F0004130BD14F580040C
:105BFC003CBF01F5801130BD01F0004545F0FE4180
:105C0C0041F470014FF0000030BD7FEA645C1ABFB4
:105C1C00194610467FEA655C1CBF0B46024650EAEB
:105C2C00013406BF52EA033591EA030F41F4002117
:105C3C0030BD00BF90F0000F04BF0021704730B59D
:105C4C004FF4806404F132044FF000054FF0000172
:105C5C0050E700BF90F0000F04BF0021704730B533
:105C6C004FF4806404F1320410F0004548BF404208
:105C7C004FF000013EE700BF42004FEAE2014FEA5D
:105C8C0031014FEA02701FBF12F07F4393F07F4F38
:105C9C0081F06051704732F07F4208BF704793F03B
:105CAC007F4F04BF41F40021704730B54FF460744E
:105CBC0001F0004521F000411CE700BF50EA010251
:105CCC0008BF704730B54FF000050AE050EA0102FA
:105CDC0008BF704730B511F0004502D5404261EB6A
:105CEC0041014FF4806404F132045FEA915C3FF4AB
:105CFC00D8AE4FF003025FEADC0C18BF03325FEA48
:105D0C00DC0C18BF033202EBDC02C2F1200300FAF8
:105D1C0003FC20FA02F001FA03FE40EA0E0021FA1D
:105D2C0002F11444BDE600BF4FEA410212F5001225
:105D3C0015D211D56FF47873B3EB625212D94FEAC6
:105D4C00C12343F0004343EA505311F0004F23FAB0
:105D5C0002F018BF404270474FF00000704750EA05
:105D6C00013005D111F0004008BF6FF000407047C2
:105D7C004FF00000704700BF10B5054C13462CB116
:105D8C000A4601460220AFF3008010BD2046FCE716
:105D9C00000000000A44914200F1FF3300D170472B
:105DAC0010B511F8014B03F8014F9142F9D110BD18
:105DBC0002440346934200D1704703F8011BF9E7F4
:105DCC0038B50D4B1D68AB6B04467BB91820FEF73C
:105DDC004DFD0A4A0A4BA863C0E90023094B8360B6
:105DEC000B23838101220023C0E90423AB6B002227
:105DFC001C615A6138BD00BF60E503200E33CDAB8A
:105E0C0034126DE6ECDE0500034611F8012B03F8A5
:105E1C00012B002AF9D17047034613F8012B002AF5
:105E2C00FBD1181A013870471D400D0059400D0068
:105E3C0081400D0085400D00000000004152474F8D
:105E4C004E204950202844484350293A20002F74B2
:105E5C006F756368002D2D2D2D2D2D2D2D2D2D2D98
:105E6C002D2D2D2D2D2D2D2D2D2D2D2D2D2D2D2D56
:105E7C002D2D2D2D2D2D2D2D004D697374616B65E0
:105E8C006E205265616C697469657300436F6D7047
:105E9C006C6574656420766F6964207365747570C5
:105EAC000049276D207072657373696E670000007E
:105EBC00000000000000000069490D005F490D0062
:105ECC0055490D004B490D003F490D0033490D005C
:105EDC0027490D001F490D0015490D000B490D00F8
:105EEC00954B0D00000000000000000089490D00DA
:105EFC00D3490D00AB490D008B490D00B3490D0082
:105F0C00BB490D00C3490D00CB490D00000000003A
:105F1C0000000000054A0D00AB400D00CD400D0007
:105F2C006170700000000000000000002D4B0D009F
:105F3C00374B0D00414B0D004B4B0D00554B0D00DD
:105F4C00614B0D006D4B0D00794B0D00814B0D001D
:105F5C008B4B0D00954B0D0025592D256D2D256472
:105F6C005425483A254D3A2553257A0061736374BC
:105F7C00696D65000000000000000000AD400D00E0
:105F8C00DB400D00594F0D0081500D00514F0D009D
:105F9C00714F0D008F4F0D00A94F0D00CD4F0D000F
:105FAC0065500D0063530D0009510D0081520D0019
:105FBC00394F0D004D540D0009520D0041510D008B
:105FCC007B540D00AB500D00474F0D00E9500D00F8
:105FDC004D4F0D00AB4F0D00F0FFFFFF0000000018
:105FEC00C54F0D000000000000000000BB540D0068
:105FFC0027550D00FF540D007D4C0D00CF540D00A6
:10600C00EB540D00DD540D00F9540D00BD540D0082
:10601C00C1540D000000000000000000B9550D0037
:10602C0021560D00F7550D007D4C0D00E9550D0066
:10603C00BB550D00CB550D001B560D00DB550D004F
:10604C00B5550D00000000000000000023570D00A6
:10605C0019570D000F570D00C5560D0003570D00B5
:10606C00F7560D00EB560D00E3560D00D9560D00FA
:10607C00CF560D00954B0D00000000003D420D0069
:10608C00D1480D0075490D001D4B0D00694C0D00DC
:10609C00714D0D00E94E0D00254F0D002D570D00D3
:0460AC0000000000F0
:0460B00000000000EC
:1060B400401F0000785F0D0064E50320000000002D
:1060C40000000000000000000000000000000000CC
:1060D40000000000000000000000000000000000BC
:1060E40000000000000000000000000000000000AC
:1060F400000000000000000000000000000000009C
:10610400000000000000000000000000000000008B
:0C6114000000000000000000000000007F
:10612000FFFFFFFF00000102030405060708090A3C
:106130000B0C0D0E0F101112131415161718191A37
:086140001B1C1D1E1F2028007E
:04614800785634123F
:04000003D000401CCD
:00000001FF
