:02000002D0002C
:1040000000400D00C8630D00000006000C00050113
:084010000401DB0700000000C1
:04401800AC600D008B
:10401C0009480A49884208B505D0094A824202D0AB
:10402C00121A01F0F3FF0748074A0021121A01F097
:10403C00FBFF014808BD00BF58E5032034630D00A9
:10404C00C4E50320C4E50320F0E7032070B5074E58
:10405C00074C01F0F1FCA41BA4080025A54200D1DB
:10406C0070BD56F8043B98470135F7E700630D0027
:10407C0024630D0000F08EB908B500F08DF8BDE892
:10408C00084001F09BBC00F0FFBC00F005BD0078BF
:10409C00B0FA80F0400970470123037070477047F5
:1040AC0010B5064B036064330446036101F0F6F867
:1040BC00204601F0B9FA204610BD00BF00620D0089
:1040CC0010B51821044601F0AAFD204610BD10B50C
:1040DC000446FFF7E5FF20464C2101F0A0FD2046E9
:1040EC0010BD000030B5144C0023606887B01A4630
:1040FC00194600F079FC00226068114600F08CFC37
:10410C000028F8D0052000F0DFFC01F0CDFB0B49B6
:10411C0000F0F8FE01F0C8FB00221146054660686D
:10412C0000F05AFC811C684600F0C8FD6946284620
:10413C0000F00BFF07B030BDB8E70320C0600D00E6
:10414C0030B59FB00F498DED010A09A800F098F920
:10415C000D4D9DED010A09A800F0D1F90B4B03930D
:10416C000FCD04AC0FC42B682370094B09491B6895
:10417C0003AA09A800F0EEF909A800F0A3F91FB0F2
:10418C0030BD00BFD2600D0030E6032098610D00F9
:10419C0058E50320C8E5032008B5322000F094FC54
:1041AC00022001F0E3FC70B901F07EFB064900F03F
:1041BC00C2FEB7EE000AFFF7C3FFBDE808404FF49C
:1041CC007A7000F081BC08BDD9600D0070B5064650
:1041DC0014460D4601F0F6FC314600F025FD01F0C9
:1041EC00F1FC036829469B68984701F0EBFC0368D7
:1041FC0021469B68984701F0E5FCBDE8704000F053
:10420C001ABD10B5002204465E21FFF7DFFF2046E1
:10421C0001222B21FFF7DAFF204601222C21FFF788
:10422C00D5FF204600222D21FFF7D0FF204600228B
:10423C002E21FFF7CBFF204601222F21FFF7C6FFCF
:10424C00204601223021FFF7C1FF2046FF223121F9
:10425C00FFF7BCFF204602223221FFF7B7FF2046B2
:10426C0006224121FFF7B2FF20460A224221FFF726
:10427C00ADFF204606224321FFF7A8FF20460A2265
:10428C004421FFF7A3FF204606224521FFF79EFF9E
:10429C0020460A224621FFF799FF20460622472195
:1042AC00FFF794FF20460A224821FFF78FFF204694
:1042BC0006224921FFF78AFF20460A224A21FFF7EE
:1042CC0085FF204606224B21FFF780FF20460A225D
:1042DC004C21FFF77BFF204606224D21FFF776FF8E
:1042EC0020460A224E21FFF771FF204606224F215D
:1042FC00FFF76CFF20460A225021FFF767FF20468C
:10430C0006225121FFF762FF20460A225221FFF7B5
:10431C005DFF204606225321FFF758FF20460A2254
:10432C005421FFF753FF204606225521FFF74EFF7D
:10433C0020460A225621FFF749FF20460622572124
:10434C00FFF744FF20460A225821FFF73FFF204683
:10435C0004225D21FFF73AFF20460C225E21FFF775
:10436C0035FF20460C22BDE810405E21FFF72EBF22
:10437C0008B50021072001F0CFFB0121072001F037
:10438C00DCFB01F01FFC00F045FCBDE808405A20A6
:10439C00FFF737BF10B501F087FA184C4FF41651E0
:1043AC0001F076FA01F080FA00F0B9FD01F07CFA28
:1043BC00214600F0C0FD01F077FA114900F0BBFD79
:1043CC0001F072FA214600F0B6FD0221084601F018
:1043DC00A3FBFFF7CDFFFFF785FE41F641710022ED
:1043EC00084800F00FFF052000F06EFB01F05CFAAE
:1043FC00BDE81040044900F09EBD00BFE6600D0012
:10440C000A610D00C8E503201D610D0073B5124D46
:10441C00124C134E284601F0E7F82846114D12496C
:10442C00224601F0F7FB284600F03AFC22463146C2
:10443C0028460E4D01F0EEFB09230093A822012320
:10444C00C021284600F070FC22463146284602B0B6
:10445C00BDE8704001F0DEBBC8E50320C4E50320D5
:10446C00AB400D0014E60320AD400D002CE60320FC
:10447C000023C0E91333036083624360704700007C
:10448C0070B504460D4608300D4900F0F0FD04F1FE
:10449C002C060B4904F1180000F0E9FD08493046E0
:1044AC0000F0E5FD064904F13C0000F0E0FD20467B
:1044BC00FFF7DEFF2946304600F0EDFD204670BDCB
:1044CC00D1600D0010B50446006800F0E5FAA06A52
:1044DC0000F0E2FAE06C00F0DFFA04F13C0000F0CE
:1044EC007BFD04F12C0000F077FD04F1180000F0C6
:1044FC0073FD04F1080000F06FFD204610BD38B5C7
:10450C00016D04460431C06C10EE105A00F0CCFA68
:10451C00E064E8B1226DC5F307618154D4E913213D
:10452C000A44C5F307415170D4E913210A44C5F379
:10453C0007219170D4E913210A4404F13C00D57091
:10454C00236D043323656621BDE8384000F0CCBDF3
:10455C0038BD00002DE9F04F8BB0D0F82C9000AF97
:10456C00804648460D46C7E9023201F091FD0646E9
:10457C000330800801F09AFC3F4B002201F05AFBFB
:10458C0001F00EFDD8F83CA0C6EB80068400504626
:10459C0001F07EFD0134834604440130800801F0B3
:1045AC0085FC354B002201F045FB01F0F9FCCBF109
:1045BC00030303EB800BD8F850303B605C441C4485
:1045CC00E21D22F00702ADEB020D002122466846E7
:1045DC0001F02AFD484601F05BFD4946024668465B
:1045EC0001F014FD484601F053FD0DEB06022C21A1
:1045FC001154484601F04CFD7860504601F048FDDE
:10460C0079680131024688196844514601F0FEFC74
:10461C00484601F03DFD8146504601F039FD4844C5
:10462C0001303B68D8F84C10304458441A46684462
:10463C0001F0ECFC2B68FE68D3F838800F4B3B6123
:10464C0004360FCE07F1140CACE80F0033688CF86D
:10465C0000303A8907F110012846C0472B682246E2
:10466C006946DB68284698472B6828461B6C984798
:10467C002C37BD46BDE8F08F0000E03F98610D007F
:10468C0008B5024B1B685B6C019308BD4802030024
:10469C0008B5024B1B689B6C019308BD48020300D4
:1046AC0008B5024B1B685B68019308BD1802030038
:1046BC0008B5024B1B685B69019308BD1802030027
:1046CC0008B5024B1B689B68019308BD2C020300C4
:1046DC0008B5024B1B68DB68019308BD2C02030074
:1046EC0008B5024B1B681B69019308BD2C02030023
:1046FC0008B5024B1B685B69019308BD2C020300D3
:10470C0008B5024B1B68DB68019308BD2802030047
:10471C0008B5024B1B689B69019308BD2802030076
:10472C0008B5024B1B68DB69019308BD2802030026
:10473C0008B5024B1B681B6A019308BD28020300D5
:10474C0008B5024B1B685B6A019308BD2802030085
:10475C0008B5024B1B689B6A019308BD2802030035
:10476C0008B5024B1B68DB6A019308BD28020300E5
:10477C0008B5024B1B681B6B019308BD2802030094
:10478C0008B5024B1B685B6B019308BD2802030044
:10479C0008B5024B1B681B6C019308BD2802030073
:1047AC0008B5024B1B685B69019308BD6C020300E2
:1047BC0008B5024B1B685B69019308BD64020300DA
:1047CC0008B5024B1B681B6A019308BD6402030009
:1047DC0008B5024B1B685B6A019308BD64020300B9
:1047EC0008B5024B1B689B6A019308BD6402030069
:1047FC0008B5024B1B689B68019308BD6802030057
:10480C0008B5024B1B68DB68019308BD6802030006
:10481C0008B5024B1B685B68019308BD38020300A6
:10482C0008B5024B1B689B69019308BD3802030055
:10483C0008B5024B1B68DB69019308BD3802030005
:10484C0008B5024B1B68DB6A019308BD38020300F4
:10485C0008B5024B1B685B6B019308BD3802030063
:10486C0008B5024B1B689B6B019308BD3802030013
:10487C0008B5024B1B68DB69019308BD30020300CD
:10488C0008B5024B1B681B6A019308BD300203007C
:10489C0008B5024B1B681B68019308BD3C02030062
:1048AC0008B5024B1B68DB68019308BD3C02030092
:1048BC0008B5024B1B681B69019308BD3C02030041
:1048CC0008B5024B1B685B69019308BD3C020300F1
:1048DC0008B5024B1B689B69019308BD3C020300A1
:1048EC0008B5024B1B68DB69019308BD3C02030051
:1048FC0008B5024B1B681B6A019308BD3C02030000
:10490C0008B5024B1B689B6A019308BD3C0203006F
:10491C0008B5024B1B681B68019308BD4C020300D1
:10492C0008B5024B1B685B68019308BD4C02030081
:10493C0008B5024B1B681B69019308BD4C020300B0
:10494C0008B5024B1B685B69019308BD4C02030060
:10495C0008B5024B1B689B69019308BD4C02030010
:10496C0008B5024B1B68DB69019308BD4C020300C0
:10497C0008B5024B1B681B6A019308BD4C0203006F
:10498C0008B5024B1B685B68019308BD200203004D
:10499C0008B5024B1B685B69019308BD200203003C
:1049AC0008B5034B1B68D3F88830019308BD000091
:1049BC002002030008B5034B1B68D3F89430019315
:1049CC0008BD00002002030008B5024B1B68DB6B1E
:1049DC00019308BD4402030008B5024B1B681B6819
:1049EC00019308BD4002030008B5024B1B685B68CD
:1049FC00019308BD4002030008B5024B1B689B687D
:104A0C00019308BD4002030008B5024B1B68DB682C
:104A1C00019308BD4002030008B5024B1B681B69DB
:104A2C00019308BD4002030008B5024B1B685B698B
:104A3C00019308BD4002030008B5024B1B689B693B
:104A4C00019308BD4002030008B5024B1B68DB69EB
:104A5C00019308BD4002030008B5024B1B681B6A9A
:104A6C00019308BD4002030008B5024B1B681B6B89
:104A7C00019308BD4002030008B5024B1B685B6B39
:104A8C00019308BD4002030008B5024B1B681B686C
:104A9C00019308BD1C02030008B5024B1B685B6840
:104AAC00019308BD1C02030008B5024B1B689B68F0
:104ABC00019308BD1C02030008B5024B1B685B6C1C
:104ACC00019308BD1C0203000021FFF761BF10B564
:104ADC000446006808B1FFF7DBFD204610BD00005E
:104AEC0010B5064C002320462360FFF7C9FD204675
:104AFC00034A0449BDE8104001F08CB844E6032099
:104B0C00C4E50320DB4A0D0010B58368044613B1DD
:104B1C00032201469847204610BD002240681146EA
:104B2C00FFF79ABF002240681146FFF7A5BF406807
:104B3C000022FFF799BF4068002281F00101FFF7C6
:104B4C0083BF002340681A461946FFF775BF002340
:104B5C0040681A461946FFF767BF002240681146A5
:104B6C00FFF75ABF002240681146FFF745BF406867
:104B7C0000220221FFF748BF002340681A46FFF7C6
:104B8C0033BF0000024B03225A60024A1A6070477E
:104B9C0048E603203C610D007047F8B50646154603
:104BAC000C468F18BC4206D0336814F8011B9B6866
:104BBC0030469847F6E72846F8BD007C0022FFF700
:104BCC00B7BD007C0021FFF7BBBD007C0021FFF7C7
:104BDC00BFBD007C0021FFF7C3BD007C0021FFF7A7
:104BEC00C7BD10B51421044601F019F8204610BDBC
:104BFC0010B54FF47A73044608460021C4E901133A
:104C0C00034B236020741146FFF7C2FD204610BDF4
:104C1C0070610D000023007C1A461946FFF770BD29
:104C2C00007C0022FFF774BDC9B2FFF7F9BF007C0E
:104C3C000022FFF775BD0121FFF7F9BFF0B5037D29
:104C4C00062B8DB00E4600F104074FF0000412D075
:104C5C0000F1080515F8011D0A22304600F07FF915
:104C6C00AF42044419D0002CF4D02E21304600F071
:104C7C004DF90444EEE72F236A4639460A208DF895
:104C8C000040FFF795FD684601F002FA33680246D2
:104C9C00DB68694630469847044620460DB0F0BDA7
:104CAC0010B5054B0446112240F8043B002101F0DD
:104CBC00BBF9204610BD00BF98610D000346074AA2
:104CCC0010B543F8042B01F1100251F8044B43F8D2
:104CDC00044B9142F9D10A781A7010BD98610D00FD
:104CEC00037D042B04D14068003818BF01207047A5
:104CFC00062B07D143683BB983682BB9C3681BB932
:104D0C000069F1E7002070470120704710B59DF84D
:104D1C00084044EA032343EA024242EA01610423C5
:104D2C004160037510BD000037B5044D05609DF85A
:104D3C0018500095FFF7EAFF03B030BD98610D00E5
:104D4C0013B5CB7800938B784A780978FFF7DEFFA0
:104D5C0002B010BD014B024A1A60704750E60320A6
:104D6C00A4610D00002340681A46FFF73DBE406861
:104D7C0000220221FFF748BE002240681146FFF7CF
:104D8C003BBE002240681146FFF746BE0023406838
:104D9C001A461946FFF748BE002340681A461946C2
:104DAC00FFF74ABE4068002281F00101FFF74CBEBC
:104DBC0040680022FFF758BE002240681146FFF7FA
:104DCC005BBE002240681146FFF746BE2DE9F0435A
:104DDC00002495B016460D460746FFF761FF2146A5
:104DEC0018220EA8009401F01FF94023CDE90C34D1
:104DFC0021466B460CAA3046FFF702FD04460028FC
:104E0C0046D1024601216868FFF706FE0221804662
:104E1C0022466868FFF700FE009E81462146002E60
:104E2C0036D0002934D17368022B03D00A2B0BD057
:104E3C00F669F4E7B8F1000F04D071693846043113
:104E4C00FFF77EFF4146F3E7B9F1000F01D1494668
:104E5C00EEE77469102201A801F0E6F806238DF83C
:104E6C00143001AD04F108031834186859682A4647
:104E7C0003C20833A3421546F7D101A906A807AD12
:104E8C00FFF71CFF0FCD3C1D0FC42B682370DEE712
:104E9C000098FFF7ADFC384615B0BDE8F083000074
:104EAC00024B034A1A6000225A60704754E60320F2
:104EBC00B0610D00F8B506460D468F180024BD42B2
:104ECC000CD0336815F8011B9B6830469847031EBD
:104EDC0001DB1C44F3E7002C08BF1C462046F8BD40
:104EEC0013B50446084659B1019101F0D1F8236875
:104EFC000199DB680246204602B0BDE81040184715
:104F0C0002B010BD08B5FFF7EBFF08BD03689B6846
:104F1C0018470A680B46126801461846104738B500
:104F2C000D210546FFF7F2FF0A2104462846FFF73C
:104F3C00EDFF204438BD38B50546FFF7D1FF0446D8
:104F4C002846FFF7ECFF204438BD38B50546FFF77F
:104F5C00E0FF04462846FFF7E2FF204438BD30B599
:104F6C008BB000238DF82430012A98BF0A2209AC9B
:104F7C000D46B1FBF2F101FB125303F0FF03092BB9
:104F8C0094BF30333733DBB2AA4204F8013DEFD97A
:104F9C002146FFF7A5FF0BB030BD10B50446FFF757
:104FAC00B3FD204610BD00000348044A0449002309
:104FBC00836000F02FBE00BF5CE60320C4E5032035
:104FCC00A74F0D0010B5044608462170FFF750FCA2
:104FDC0000236360204610BD10B504460068FFF73F
:104FEC005BFD204610BD10B50446006808B1FFF704
:104FFC0053FD0023C4E90133236010BD38B50446CA
:10500C000D4600680131FFF74FFD10B1C4E90005F2
:10501C00012038BD10B50368044623B143688B42A8
:10502C0001D3012010BD2046FFF7E8FF0028F9D07E
:10503C00A368002BF5D122681370F2E737B50D4643
:10504C00114601920446FFF7E5FF019A28B9204664
:10505C00FFF7C9FF204603B030BDA2602946206887
:10506C0000F0D4FF2268A3680021D154F2E700239A
:10507C0013B5C0E9003304468360037341B108469D
:10508C00019101F005F8019902462046FFF7D6FF81
:10509C00204602B010BD13B5044659B10846019123
:1050AC0000F0F6FF019902462046FFF7C7FF2046A5
:1050BC0002B010BDFFF797FFF9E770B505460E4635
:1050CC0009B9002070BD6AB1846814442146FFF709
:1050DC00A1FF0028F5D02868AB683146184400F0D1
:1050EC00CFFFAC600120EDE707B500238DF804106D
:1050FC00012201A98DF80530FFF7DFFF03B05DF841
:10510C0004FB10B50446006818B1FFF7C5FC00237A
:10511C00236010BD10B50446FFF7F3FF204610BD09
:10512C0010B5094B094C022200201A60084B206074
:10513C00A080A071A360FFF723FC2046054A064916
:10514C00BDE8104000F066BD78E603206CE6032055
:10515C000000FFFFC4E5032021510D00024B1A682B
:10516C00024B1A60704700BF5CE503207CE603200D
:10517C0010B40468246BA4465DF8044B60470368C4
:10518C009B6C1847808E7047028FC08E101A704728
:10519C0007B503688DF80710DB6801220DF10701D4
:1051AC00984703B05DF804FB10B503681B6904460F
:1051BC00984728B1E38EE26B591CE186D05C10BD98
:1051CC004FF0FF30FBE710B503681B6904469847A6
:1051DC0018B1E38EE26BD05C10BD4FF0FF30FBE7F3
:1051EC00704710B403460846DC6BD98E1A8F0368DF
:1051FC00521ADB6821445DF8044B1847A0F11000EB
:10520C00FFF7EFBF70B503688CB05B6A04460E46BF
:10521C001546984701231C22002105A8029300F093
:10522C0003FF40F61C233046ADF81430FFF7D8FAD4
:10523C001122ADF8160002210A20FFF711FB0028FD
:10524C00606125DB0422009202AB40F6FF71FFF790
:10525C00E7FAE8B995B10390ADF8100003A9E8B2EC
:10526C00FFF79EFAA0B906230093606903AB41F2E5
:10527C000B0240F6FF71FFF7D3FA48B960691C22A4
:10528C0005A9FFF7C5FA18B9656401200CB070BD0B
:10529C00236820465B6A98470020F7E710B5044660
:1052AC004069002801DBFFF7C3FA4FF0FF3363615D
:1052BC000023E386238710BD70B50546C06BEE8EC8
:1052CC0068B12B6C9C1B944228BF14462246304478
:1052DC0000F09CFEEB8E2344EB86204670BD04460A
:1052EC00F1E7D0B503681B6904460F46164698478C
:1052FC0090B1236820461B699847E38EE16B864288
:10530C00A8BF064619443246384600F07FFEE38EAD
:10531C003344E3863046D0BD4FF0FF36FAE7000049
:10532C0070B50446054B44F8043B01F120050646D4
:10533C000FCD0FC42B682370304670BD98610D00E3
:10534C00F0B59646026889B0976A0A4A02921C1D0B
:10535C008C4606460FCC03AD0FC523682B70BDF8E9
:10536C0038300093724602AB61463046B84709B0FC
:10537C00F0BD00BF98610D00F0B5036889B09F6A5D
:10538C000C4B029300F1200604460FCE03AD0FC563
:10539C0033682B70A38EE28EE16B0093204602AB38
:1053AC00B84723680546DB6920469847284609B06C
:1053BC00F0BD00BF98610D00F0B54378022B8DB0A5
:1053CC0005460C46174604D1011D2046FFF7B8FCD4
:1053DC0022E00A2B25D11122002101A800F024FE85
:1053EC00AB6803B305F1080301AE05F1180C18689E
:1053FC005968324603C2083363451646F7D1062373
:10540C0001A906A807AE8DF81430FFF757FC0FCE94
:10541C0004340FC4336823701FB16888FFF7D8F9C0
:10542C0038800DB0F0BDEB68002BDBD14FF6FF7070
:10543C002E69FFF7C5F98642D4D105F11401C4E7F2
:10544C002DE9F04117468EB00022064601AB084606
:10545C0011460192FFF7D4F9041E20DB019B2BB3FC
:10546C005B691BB302A8FFF71BFC019B0022586968
:10547C0002A9FFF7A1FF02A8FFF732FCB0B1336815
:10548C0003ADD3F838800B4B08930FCD09AC0FC488
:10549C002B6823703A4608A93046C0470446019849
:1054AC00FFF7A6F920460EB0BDE8F0814FF0FF34AF
:1054BC00F5E700BF98610D002DE9F047D0F8149086
:1054CC00B9F1000F90B005460E4690461C463CDBE9
:1054DC0000293AD04FF01C0A09AF52460021384639
:1054EC0000F0A2FDCDF80CA0DCB100224FF47A70D4
:1054FC00B4FBF0F3CDE9043200FB13435843102303
:10550C0007920690009341F206026B4440F6FF713D
:10551C004846FFF785F9044620B1204610B0BDE897
:10552C00F087082403ABCDE9007368692346424633
:10553C003146FFF785F9041EEFDB05F1340205F166
:10554C001C013846FFF738FFE7E74FF0FF34E4E77C
:10555C0038B5054614462B7D062B084610D140F66F
:10556C001C231380FFF73CF908342B1D24F8060C80
:10557C00143553F8042B44F8042BAB42F9D138BD45
:10558C00042BFCD14FF404731380FFF729F96080CE
:10559C006868FFF715F96060F1E72DE9F0438BB00F
:1055AC0003AF4FF01C09984604460D4616460021E1
:1055BC004A46384600F038FDBDF848103A46404699
:1055CC00FFF7C6FF9DF80D3053B1CDE90079606946
:1055DC00002332462946FFF73BF90BB0BDE8F083B8
:1055EC004FF0FF30F9E7000038B500254FF47A731F
:1055FC00C0E901530B4B03F108026C3303614FF00C
:10560C00FF330446026043611C30FFF749FB4FF443
:10561C000073C4E91035E5862587E56384F84850A6
:10562C00204638BDF8610D0010B590F8483004469E
:10563C0023B1C06B10B1012100F0F1FA0023E36338
:10564C0084F848302364E386238710BD70B5044684
:10565C0016460D46FFF7E8FF0023E66323642EB1E0
:10566C002564206C003818BF012070BD002DF8D0C7
:10567C002846FEF708FD0123E06384F84830002833
:10568C00EFD0EDE7F8B51746C26B05460C461AB9D4
:10569C00016C09B1FFF7DAFF04340FCC05F12006D9
:1056AC000FC6236833700023286CAF86EB862B87DC
:1056BC00F8BD37B5C26B04460B462AB9016C19B15B
:1056CC000193FFF7C3FF019BE16B0022E286228767
:1056DC0041B1226C32B12068056B2046A8470028E6
:1056EC00C8BF208723681B69204603B0BDE8304043
:1056FC00184770474174704708B5007CFFF700F9F4
:10570C0020EAE07008BD08B5007CFFF7D1F820EA6C
:10571C00E07008BD08B5007CFFF7DAF840EAE070ED
:10572C0008BD08B5007CFFF7CBF840EAE07008BD77
:10573C00007CFFF7D5B837B5457C04462DB1207CED
:10574C0003B0BDE83040FFF7ABB8007C0191FFF728
:10575C00D7F800280199F2DC284603B030BD10B50B
:10576C001421044600F05BFA204610BD10B54FF032
:10577C00000C0446084611464FF47A72C4E901C283
:10578C00044A22600122207462741A46FFF780F8E2
:10579C00204610BD70620D0013B50E4C2178BFF37E
:1057AC005B8F11F0010112D120460191FEF76FFCC5
:1057BC00019960B1084A094B0948FFF7D7FF204609
:1057CC00FEF76AFC074A0849054800F023FA04482A
:1057DC0002B010BD80E6032084E6032008E7032016
:1057EC008CE70320C4E50320FF560D00417470477D
:1057FC00704708B50021007CFFF7AAF840EAE0707A
:10580C0008BD08B50121007CFFF7A2F840EAE07062
:10581C0008BD08B5007CFFF793F820EAE07008BDDE
:10582C0008B5007CFFF784F820EAE07008BD13B5DA
:10583C000446007C0191FFF783F80028019901DCF4
:10584C00607C20B1207CFFF78BF820EAE07002B07E
:10585C0010BD007CFFF78CB810B51421044600F085
:10586C00DEF9204610BD000010B54FF47A730446E3
:10587C0008460021C4E90113044B23600123207462
:10588C0063741146FFF744F8204610BDA0620D006A
:10589C00007C0022FFF744B810B514220446002106
:1058AC0000F0C2FB204610BD10B5104C88B003A808
:1058BC00FFF7F2FF2178BFF35B8F11F0010111D1DB
:1058CC0020460191FEF7E3FB019958B103AA084861
:1058DC00FFF7CAFF2046FEF7DFFB064A06490448DD
:1058EC0000F098F9024808B010BD00BFA0E70320F3
:1058FC00A4E70320C4E50320FD570D0000224068F7
:10590C001146FFF789B8002240681146FFF7A4B88A
:10591C00002240681146FFF7AFB840680022FFF73D
:10592C00A3B84068002281F00101FFF78DB8002375
:10593C0040681A461946FFF77FB8002340681A469C
:10594C001946FFF771B8002240681146FFF754B8AA
:10595C00406800220221FFF757B8002340681A461E
:10596C00FFF742B8024B04225A60024A1A60704791
:10597C00B8E70320D0620D00014B1860704700BFE0
:10598C0060E5032008B50B4B43B1FFF78DFF0368AF
:10599C001B699847002801DDAFF30080064B43B12B
:1059AC00FFF7FAFE03681B699847002801DDAFF387
:1059BC00008008BD000000000000000008B5FFF7E3
:1059CC00E1FFFEF775FE014B186008BDD4E703201C
:1059DC000248034A0349121A00F018BB00F40320D2
:1059EC0004F4032030630D0007B5002300931A461E
:1059FC006FF07701FEF7DEFF03B05DF804FB0000EB
:105A0C0007B543880A2B08D0502B0BD1094B1B68C8
:105A1C004BB103B05DF804EB1847FFF7E5FF03B09B
:105A2C005DF804FB002300931A466FF07701FEF734
:105A3C00C1FFF4E7C4E7032038B5124C1248134DEC
:105A4C000021FFF739F82368AB42114B0CBF012240
:105A5C0000221A7002D0FFF7BBFF2560FEF720FE74
:105A6C00044600F0E9FA0B4B13B12046AFF300806B
:105A7C0000210848FEF7A8FFBDE838400648002181
:105A8C00FEF78EBF00F4032085590D001E1C279ACB
:105A9C00C0E70320000000000D5A0D00232813B5A9
:105AAC0002D9002002B010BDA0F10B03022B1AD8B2
:105ABC00174C2178BFF35B8F11F001010BD12046FD
:105ACC000191FEF7E4FA019928B11248FFF77AFA2E
:105ADC002046FEF7E1FA0F4B1878FEF7D1FE0028AE
:105AEC00DFD10120DEE7012809D800F06BF8002196
:105AFC00007CFEF745FE80F00100C0B2D2E7093809
:105B0C000128EED8FFF748FE007CFEF7F1FEF2E725
:105B1C00C8E70320CCE70320232838B504460D46FC
:105B2C000AD8FF2908D0FFF7B9FF28B1294620462B
:105B3C00BDE83840FEF7C4BD38BD38B504460D4647
:105B4C00FEF7C6FDFF2810D0062804D84D2323FAF3
:105B5C0000F0C30709D42046FFF7A0FF28B129465F
:105B6C002046BDE83840FEF7BBBD38BD10B5044635
:105B7C00FEF7AEFD031FDBB2012B08D92046FFF761
:105B8C008DFF20B12046BDE81040FEF7B1BD0020CE
:105B9C0010BD000038B50023202543801423044693
:105BAC000380856005610649284600F03AF80449EF
:105BBC006060284600F035F8E060204638BD00BF34
:105BCC00FC620D0030B50F4D2978BFF35B8F11F0DF
:105BDC00010487B013D12846FEF759FA78B101A811
:105BEC00FFF7D8FF01AA21460748FFF701F828461E
:105BFC00FEF752FA054A0649034800F00BF8024832
:105C0C0007B030BDD8E70320DCE70320C4E5032050
:105C1C00A54B0D000B460146184600F0E9B9FEF7FE
:105C2C0034BAFEF730BA000081F0004102E000BF48
:105C3C0083F0004330B54FEA41044FEA430594EA40
:105C4C00050F08BF90EA020F1FBF54EA000C55EA7B
:105C5C00020C7FEA645C7FEA655C00F0E2804FEA4C
:105C6C005454D4EB5555B8BF6D420CDD2C4480EA2E
:105C7C00020281EA030382EA000083EA010180EA5E
:105C8C00020281EA0303362D88BF30BD11F0004FAC
:105C9C004FEA01314FF4801C4CEA113102D04042E2
:105CAC0061EB410113F0004F4FEA03334CEA13331D
:105CBC0002D0524263EB430394EA050F00F0A78035
:105CCC00A4F10104D5F1200E0DDB02FA0EFC22FA30
:105CDC0005F2801841F1000103FA0EF2801843FA24
:105CEC0005F359410EE0A5F120050EF1200E012A15
:105CFC0003FA0EFC28BF4CF0020C43FA05F3C01853
:105D0C0051EBE37101F0004507D54FF0000EDCF1CB
:105D1C00000C7EEB00006EEB0101B1F5801F1BD374
:105D2C00B1F5001F0CD349085FEA30004FEA3C0C78
:105D3C0004F101044FEA445212F5800F80F09A806E
:105D4C00BCF1004F08BF5FEA500C50F1000041EB72
:105D5C00045141EA050130BD5FEA4C0C404141EB76
:105D6C000101013C28BFB1F5801FE9D291F0000F71
:105D7C0004BF01460020B1FA81F308BF2033A3F120
:105D8C000B03B3F120020CDA0C3208DD02F1140C17
:105D9C00C2F10C0201FA0CF021FA02F10CE002F152
:105DAC001402D8BFC2F1200C01FA02F120FA0CFC4B
:105DBC00DCBF41EA0C019040E41AA2BF01EB045194
:105DCC00294330BD6FEA04041F3C1CDA0C340EDC92
:105DDC0004F11404C4F1200220FA04F001FA02F3D5
:105DEC0040EA030021FA04F345EA030130BDC4F193
:105DFC000C04C4F1200220FA02F001FA04F340EA88
:105E0C000300294630BD21FA04F0294630BD94F038
:105E1C00000F83F4801306BF81F480110134013D1F
:105E2C004EE77FEA645C18BF7FEA655C29D094EA90
:105E3C00050F08BF90EA020F05D054EA000C04BF0E
:105E4C001946104630BD91EA030F1EBF00210020F9
:105E5C0030BD5FEA545C05D14000494128BF41F098
:105E6C00004130BD14F580043CBF01F5801130BDFC
:105E7C0001F0004545F0FE4141F470014FF0000087
:105E8C0030BD7FEA645C1ABF194610467FEA655C38
:105E9C001CBF0B46024650EA013406BF52EA0335DA
:105EAC0091EA030F41F4002130BD00BF90F0000FC8
:105EBC0004BF0021704730B54FF4806404F1320404
:105ECC004FF000054FF0000150E700BF90F0000FBD
:105EDC0004BF0021704730B54FF4806404F13204E4
:105EEC0010F0004548BF40424FF000013EE700BFB4
:105EFC0042004FEAE2014FEA31014FEA02701FBF44
:105F0C0012F07F4393F07F4F81F06051704732F075
:105F1C007F4208BF704793F07F4F04BF41F40021CC
:105F2C00704730B54FF4607401F0004521F000412A
:105F3C001CE700BF50EA010208BF704730B54FF0B4
:105F4C0000050AE050EA010208BF704730B511F0B5
:105F5C00004502D5404261EB41014FF4806404F1ED
:105F6C0032045FEA915C3FF4D8AE4FF003025FEA73
:105F7C00DC0C18BF03325FEADC0C18BF033202EBF7
:105F8C00DC02C2F1200300FA03FC20FA02F001FA51
:105F9C0003FE40EA0E0021FA02F11444BDE600BFF4
:105FAC004FEA410212F5001215D211D56FF4787335
:105FBC00B3EB625212D94FEAC12343F0004343EAD8
:105FCC00505311F0004F23FA02F018BF40427047B3
:105FDC004FF00000704750EA013005D111F000403D
:105FEC0008BF6FF0004070474FF00000704700BFD3
:105FFC0010B5054C13462CB10A4601460220AFF3EE
:10600C00008010BD2046FCE7000000000A449142CD
:10601C0000F1FF3300D1704710B511F8014B03F8B4
:10602C00014F9142F9D110BD02440346934200D175
:10603C00704703F8011BF9E738B50D4B1D68AB6BC6
:10604C0004467BB91820FEF71FFD0A4A0A4BA863C9
:10605C00C0E90023094B83600B23838101220023B9
:10606C00C0E90423AB6B00221C615A6138BD00BF30
:10607C0060E503200E33CDAB34126DE6ECDE05008B
:10608C00034611F8012B03F8012B002AF9D17047B4
:10609C00034613F8012B002AFBD1181A013870475C
:1060AC001D400D0059400D0081400D0085400D0034
:1060BC00000000004152474F4E20495020284448D0
:1060CC004350293A20002F746F7563680049276D7F
:1060DC00207072657373696E67002D2D2D2D2D2D1B
:1060EC002D2D2D2D2D2D2D2D2D2D2D2D2D2D2D2DD4
:1060FC002D2D2D2D2D2D2D2D2D2D2D2D2D004D6995
:10610C007374616B656E205265616C69746965733B
:10611C0000436F6D706C6574656420766F696420E4
:10612C007365747570000000000000000000000032
:10613C00854B0D007B4B0D00714B0D00674B0D001B
:10614C005B4B0D004F4B0D00434B0D003B4B0D00BB
:10615C00314B0D00274B0D00D94D0D0000000000F8
:10616C0000000000A54B0D00EF4B0D00C74B0D00C0
:10617C00A74B0D00CF4B0D00D74B0D00DF4B0D0087
:10618C00E74B0D000000000000000000494C0D0022
:10619C00AB400D00CD400D006170700000000000A0
:1061AC0000000000714D0D007B4D0D00854D0D0064
:1061BC008F4D0D00994D0D00A54D0D00B14D0D00ED
:1061CC00BD4D0D00C54D0D00CF4D0D00D94D0D0031
:1061DC0025592D256D2D25645425483A254D3A25F4
:1061EC0053257A0061736374696D650000000000CB
:1061FC0000000000AD400D00DB400D009D510D0076
:10620C00C5520D0095510D00B5510D00D3510D0027
:10621C00ED510D0011520D00A9520D00A7550D00A6
:10622C004D530D00C5540D007D510D0091560D00C0
:10623C004D540D0085530D00BF560D00EF520D004F
:10624C008B510D002D530D0091510D00EF510D0090
:10625C00F0FFFFFF0000000009520D0000000000DD
:10626C0000000000FF560D006B570D0043570D004A
:10627C00C14E0D0013570D002F570D0021570D0067
:10628C003D570D0001570D0005570D000000000093
:10629C0000000000FD570D0065580D003B580D0027
:1062AC00C14E0D002D580D00FF570D000F580D005D
:1062BC005F580D001F580D00F9570D00000000002D
:1062CC000000000067590D005D590D0053590D0079
:1062DC0009590D0047590D003B590D002F590D0060
:1062EC0027590D001D590D0013590D00D94D0D00E6
:1062FC000000000019440D00ED4A0D00914B0D00FB
:10630C00614D0D00AD4E0D00B54F0D002D510D0022
:10631C0069510D0071590D000000000000000000D3
:04632C00000000006D
:046330000000000069
:10633400401F0000F0610D0064E503200000000030
:106344000000000000000000000000000000000049
:106354000000000000000000000000000000000039
:106364000000000000000000000000000000000029
:106374000000000000000000000000000000000019
:106384000000000000000000000000000000000009
:0C639400000000000000000000000000FD
:1063A000FFFFFFFF00000102030405060708090ABA
:1063B0000B0C0D0E0F101112131415161718191AB5
:0863C0001B1C1D1E1F202800FC
:0463C80078563412BD
:04000003D000401CCD
:00000001FF
